:100000006F60502213000000130000001300000076
:100010001300000013000000130000001300000094
:100020001300000013000000130000001300000084
:08003000130000007300100032
:1000380000000000000000007E6700008E670000DE
:10004800000000006A6900000000000000000000D5
:100058006C6900006E6900000000000000000000EC
:1000680070690000000000007269000000000000D4
:100078007469000076690000786900007A690000F8
:100088007C6900007E690000405A0000F45A0000B4
:10009800A85B00005C5C0000105D00008A6900003D
:1000A8008C6900008E690000906900009269000068
:1000B8009469000096690000986900009A69000038
:1000C8009C6900009E690000A0690000C45D0000F2
:1000D800A46900000E600000A8690000AA69000079
:1000E800CE6000008E6100004E620000B269000020
:1000F800B4690000B6690000B8690000BA69000078
:10010800BC6900005053000014540000D85400008B
:10011800DC5E0000C6690000C8690000CA6900000A
:1001280046650000CE690000D0690000D269000071
:10013800D4690000D66900000E630000DA69000087
:100148009C55000060560000CE63000086640000E5
:10015800E4690000E6690000E8690000EA69000057
:10016800EC690000EE690000F0690000F269000027
:10017800F4690000F6690000F86900009A8D000033
:10018800FC690000FE690000705900002257000059
:10019800E6570000B0580000086A00000666000034
:1001A8000C6A00000E6A0000106A0000C6660000B3
:1001B800146A0000166A0000186A00001A6A000033
:1001C8001C6A00001E6A0000206A0000226A000003
:1001D8000000000000000000000000000000000017
:1001E8000000000000000000000000000000000007
:0801F8000000000000000000FF
:100200003D432A876373C3029377F700BDEFADE5E3
:10021000937606FF3D8ABA960CC34CC30CC74CC7F5
:100220004107E36BD7FE11E28280B306C3408A0622
:100230009702000096966780A6002307B700A306E2
:10024000B7002306B700A305B7002305B700A30432
:10025000B7002304B700A303B7002303B700A3022A
:10026000B7002302B700A301B7002301B700A30022
:10027000B7002300B700828093F5F50F93968500B1
:10028000D58D93960501D58D61B79396270097027A
:10029000000096968682E78086FA9680C1171D8FA9
:1002A0003E96E374C3F8A5B7797106D622D4001838
:1002B000232EA4FC8327C4FDB18393F7F70FBD8BD6
:1002C000A307F4FE8327C4FDA18393F7F70FBD8B2B
:1002D0002307F4FE0347F4FEB70700200A079387BD
:1002E0008727BA979C430347E4FE91460546BA85A3
:1002F0003E85EF6010240347F4FEB70700200A078D
:1003000093878727BA979C4385453E85EF60301ECB
:1003100001000347F4FEB70700200A0793878727E9
:10032000BA979C4389453E85EF603045AA87F5D34F
:100330000347F4FEB70700200A0793878727BA9779
:100340009C43FC478346F4FE138781853697034719
:100350000700B3D7E700C207C1833E85B2502254DD
:1003600045618280797106D622D40018232EA4FC20
:10037000AE87A30DF4FC0347B4FD13060005C9675F
:100380009385C7283A85EF30806F232404FEA307A6
:1003900004FE05A00325C4FD013FAA873E878327ED
:1003A00084FEBA972324F4FE8347F4FE8507A3074F
:1003B000F4FE0347F4FE8347B4FDE36DF7FC834787
:1003C000B4FD032784FEB357F7022324F4FE8327EA
:1003D00084FEC207C1833E85B250225445618280AB
:1003E0005D7186C6A2C48008232EA4FA232CB4FA19
:1003F000232604FC232804FC232A04FC232C04FCCD
:10040000232E04FC232004FE232204FE232404FEC6
:100410008327C4FBB18393F7F70FBD8BA307F4FECB
:100420008327C4FB93F7F70F8146014681453E853C
:10043000412C8347F4FE99E7854513050020EF70B2
:10044000403E19A80347F4FE85476317F70085452A
:1004500013050040EF70E03C3165EF70C00B0347BF
:10046000F4FEB70700200A0793878727BA979C43B3
:100470003E85EF608063232604FC232804FC232AA6
:1004800004FCB7070E00232CF4FC232E04FC854744
:100490002300F4FE0347F4FEB70700200A07938702
:1004A0008727BA979C431307C4FCBA853E85EF6043
:1004B000C0650347F4FEB70700200A079387872724
:1004C000BA979C4385453E85EF6040740347F4FE30
:1004D000B70700200A0793878727BA979C4381456F
:1004E0003E85EF60302D0347F4FEB70700200A0772
:1004F00093878727BA979C433E85EF60007501007C
:100500000347F4FEB70700200A0793878727BA97A7
:100510009C433E85EF608075AA87FDF30347F4FE98
:10052000B70700200A0793878727BA979C433E8521
:10053000EF60C07601000347F4FEB70700200A070A
:1005400093878727BA979C433E85EF604077AA87B9
:10055000FDF38346F4FE832784FB13F7F70F93879D
:100560008185B6972380E7000100B640264461618B
:100570008280011122CE00102326A4FE37F500E070
:100580008328450037F500E093F8E8FF23221501A2
:1005900083A841820965130505F433D5A802AA860C
:1005A00001470325C4FEAA87014837F500E033035D
:1005B000F702B308D8029A983383F60233B6F602EC
:1005C0009A85B387C8003E860CC950C9B7F700E0CA
:1005D0009843B7F700E01367070198C3B7F700E047
:1005E0009843B7F700E01367170298C30100B7F705
:1005F00000E0DC4313F717008547E31AF7FEB7F76F
:1006000000E09843B7F700E0799B98C3010072447B
:1006100005618280011122CE00102326A4FE8327CB
:10062000C4FE958313F77700B70700200A07938766
:100630000704BA979C439C470327C4FE7D8B8546DD
:100640003397E600F98FB337F00093F7F70F3E8545
:10065000724405618280797122D60018232EA4FC91
:100660008327C4FD958393F7F70F9D8BA307F4FEB3
:100670008327C4FD93F7F70FFD8B2307F4FE034791
:10068000F4FEB70700200A0793870704BA979C4334
:10069000D8478347E4FE8546B397F600C207C18377
:1006A0003E868346F4FEB70700208A069387070438
:1006B000B6979C43318FD8C7010032544561828080
:1006C000797106D622D40018232EA4FC232CB4FC66
:1006D000B2872328D4FCA30BF4FC232004FE23229E
:1006E00004FE232404FE8327C4FD958393F7F70FAC
:1006F0009D8BA307F4FE8327C4FD93F7F70FFD8BB3
:100700002307F4FE8347F4FE91E785451145EF701A
:10071000401191A80347F4FE85476317F70085450C
:100720002145EF70001081A00347F4FE894763174D
:10073000F70085454145EF70C00E35A00347F4FE34
:100740008D476318F700854513050002EF70600DB3
:1007500019A80347F4FE91476317F7008545130571
:100760000004EF70000C8347E4FE0547B317F70061
:10077000C207C1832310F4FE032784FD8547631756
:10078000F702832704FDC207C183A183C207C18387
:1007900089E78D472322F4FE11A8832704FDC207B1
:1007A000C183A183C207C1832322F4FE832704FDF2
:1007B000C207C18393F7F70F2324F4FE0347F4FE27
:1007C000B70700200A0793870704BA979C431307CB
:1007D00004FEBA853E85EF609009032784FD8547B6
:1007E0006319F7020347F4FEB70700200A0793874F
:1007F0000704BA9794438347E4FE0547B317F7000D
:10080000C207C183034774FD3A86BE853685EF6013
:1008100090300100B250225445618280797106D631
:1008200022D40018232EA4FC232CB4FC032784FD1F
:10083000896793871771B337F70093F7F70F3E87F0
:1008400013065003C9679385472E3A85EF3020235E
:10085000B7370140938707C02326F4FE8327C4FDE2
:10086000C183BD8B2547636EF70613972700C967C1
:100870009387877FBA979C438287B73701409387D6
:1008800007C02326F4FEB1A8B70700402326F4FED4
:1008900089A8B7070040938707402326F4FE91A05C
:1008A000B7170040938707802326F4FE1DA8B717CB
:1008B0000040938707C02326F4FE25A0B7370140E8
:1008C000938707402326F4FE29A8B7570140938752
:1008D00007C02326F4FE31A0B75701402326F4FEBB
:1008E00001008327C4FE83D7C7022315F4FE0357F4
:1008F000A4FE832784FD3307F70289679387077176
:10090000B357F7022314F4FE8327C4FDA1838D8B14
:1009100081EB8327C4FE035784FE239AE702A9A82C
:100920008327C4FDA18313F7370085476319F700B8
:100930008327C4FE035784FE239CE70235A8832740
:10094000C4FDA18313F7370089476319F700832794
:10095000C4FE035784FE239EE70239A88327C4FD03
:10096000A18313F737008D476318F7008327C4FE70
:10097000035784FE2390E7040100B25022544561DE
:100980008280797122D60018232EA4FC232CB4FC7B
:10099000232AC4FC231504FE231404FE03A741826A
:1009A000832784FDB357F702C1832314F4FE03A702
:1009B0004182835784FE8507BE86832784FDB387E3
:1009C000F602B357F7022315F4FEB73701409387B9
:1009D00007C02326F4FE8327C4FDC183BD8B2547B2
:1009E000636EF70613972700CD6793870782BA9740
:1009F0009C438287B7370140938707C02326F4FEC4
:100A0000B1A8B70700402326F4FE89A8B707004025
:100A1000938707402326F4FE91A0B71700409387E1
:100A200007802326F4FE1DA8B7170040938707C050
:100A30002326F4FE25A0B7370140938707402326DD
:100A4000F4FE29A8B7570140938707C02326F4FE78
:100A500031A0B75701402326F4FE01008357A4FEBE
:100A6000FD171397070141838327C4FE2396E702EE
:100A70008327C4FE035784FE2394E7020357A4FE92
:100A8000832744FD3307F702896793870771B357BC
:100A9000F7022313F4FE8327C4FDA1838D8B81EB22
:100AA0008327C4FE035764FE239AE702A9A883277D
:100AB000C4FDA18313F7370085476319F700832727
:100AC000C4FE035764FE239CE70235A88327C4FDB8
:100AD000A18313F7370089476319F7008327C4FE02
:100AE000035764FE239EE70239A88327C4FDA18330
:100AF00013F737008D476318F7008327C4FE0357A9
:100B000064FE2390E70401003254456182805D71E8
:100B100086C6A2C48008232EA4FA232CB4FA232A62
:100B2000C4FA8327C4FBC1838D453E85EF00B00A1C
:100B3000AA873E871306D00AC9679385472E3A8550
:100B4000EF20F073032744FB896793871771B3374E
:100B5000F70093F7F70F3E871306F00AC9679385EE
:100B6000472E3A85EF20B071232E04FC232004FE8B
:100B7000231204FE232604FC232804FC232A04FC5D
:100B8000232C04FC231504FE8327C4FBC183BD8BE7
:100B90003E85EF00B00A8327C4FB93F7F70F930657
:100BA0008031014685453E85213E85450545EF60FE
:100BB0005047B7370140938707C02326F4FE8327A9
:100BC000C4FBC183BD8B2547636EF70613972700CF
:100BD000CD6793878784BA979C438287B737014054
:100BE000938707C02326F4FEB1A8B7070040232649
:100BF000F4FE89A8B7070040938707402326F4FE38
:100C000091A0B7170040938707802326F4FE1DA804
:100C1000B7170040938707C02326F4FE25A0B737F7
:100C20000140938707402326F4FE29A8B7570140C7
:100C3000938707C02326F4FE31A0B757014023262F
:100C4000F4FE01008327C4FB13D7C7008D47631A46
:100C5000F7008545B70716001385070CEF60206F76
:100C600015AA8327C4FB13D7C700C547631AF7002B
:100C70008545B707180013850710EF60406D19AA66
:100C80008327C4FB13D7C700C947631AF7008545FC
:100C9000B707180013850720EF60606BE5A883276E
:100CA000C4FB13D7C700CD47631AF7008545B707C4
:100CB000180013850730EF608069E9A88327C4FB1B
:100CC00013D7C70093072002631AF7008545B717AB
:100CD0001A0013850780EF6080676DA88327C4FB27
:100CE00013D7C70093073002631AF7008545B7177B
:100CF0001A00138507C0EF60806569A88327C4FBCD
:100D000013D7C700930710036317F70085450565E0
:100D1000EF60E06341A08327C4FB13D7C7009307AC
:100D20001007631AF7008545B70700801385470051
:100D3000EF60E06185A08327C4FB13D7C70093074A
:100D40003008631AF7008545B7071380138507013C
:100D5000EF60E05F81A08327C4FB13D7C700930730
:100D60001009631AF7008545B70715801385070238
:100D7000EF60E05D05A08327C4FB13D7C70093078E
:100D800030096319F7008545B707158013850704F7
:100D9000EF60E05B03A74182832784FBB357F70230
:100DA000C1832315F4FE03A741828357A4FE850760
:100DB000BE86832784FBB387F602B357F70223145A
:100DC000F4FE035784FE832744FB3307F702896749
:100DD00093870771B357F7022313F4FE835784FEFA
:100DE000FD17C207C1832310F4FE8357A4FE231E00
:100DF000F4FC231104FE231F04FC230204FE9307CA
:100E0000C4FDBE850325C4FEEF60B04F9307000705
:100E10002316F4FC85472317F4FC231804FC83579E
:100E200064FE2319F4FC8947231AF4FC8947231B29
:100E3000F4FC231C04FC231D04FC8327C4FBA183B6
:100E40008D8B9DE39307C4FCBE850325C4FEEF6034
:100E50003063A1450325C4FEEF70005B9145032577
:100E6000C4FEEF70206F45A08327C4FBA18313F756
:100E7000370085476315F7029307C4FCBE85032539
:100E8000C4FEEF60B079A1450325C4FEEF70805C1D
:100E9000930500400325C4FEEF708070ADA083274A
:100EA000C4FBA18313F7370089476314F702930744
:100EB000C4FCBE850325C4FEEF706014A145032564
:100EC000C4FEEF70C05E91450325C4FEEF70A072B2
:100ED0001DA88327C4FBA18313F737008D47631434
:100EE000F7029307C4FCBE850325C4FEEF70E02E15
:100EF000A1450325C4FEEF70406093050040032523
:100F0000C4FEEF70007485450325C4FEEF70C04930
:100F100085450325C4FEEF70A0430100B64026447A
:100F200061618280011122CE00102326A4FEAE87CB
:100F3000A305F4FECD670327C4FE0A07938707873E
:100F4000BA979C433E878347B4FEC207C1832316EA
:100F5000F7000100CD670327C4FE0A0793870787C0
:100F6000BA979C4383D78700C207C18393F70708CA
:100F7000F5F30100724405618280011122CE001058
:100F80002326A4FEAE872315F4FE8357A4FEA18377
:100F9000C207C18393F6F70FCD670327C4FE0A0784
:100FA00093870787BA979C433E8793970601C1832F
:100FB0002316F7000100CD670327C4FE0A079387B5
:100FC0000787BA979C4383D78700C207C183898B61
:100FD000FDD38357A4FE93F6F70FCD670327C4FE16
:100FE0000A0793870787BA979C433E879397060122
:100FF000C1832316F7000100CD670327C4FE0A074B
:1010000093870787BA979C4383D78700C207C1831A
:1010100093F70708F5F3010072440561828001111E
:1010200022CE00102326A4FE2324B4FE2322C4FED5
:1010300071A8832784FE83D70700A183C207C183D9
:1010400093F6F70FCD670327C4FE0A079387078738
:10105000BA979C433E8793970601C1832316F700F6
:101060000100CD670327C4FE0A0793870787BA9755
:101070009C4383D78700C207C183898BFDD3832715
:1010800084FE138727002324E4FE83D7070093F60A
:10109000F70FCD670327C4FE0A0793870787BA9720
:1010A0009C433E8793970601C1832316F7000100F6
:1010B000CD670327C4FE0A0793870787BA979C4327
:1010C00083D78700C207C183898BFDD3832744FE62
:1010D0001387F7FF2322E4FEA9FF0100CD67032752
:1010E000C4FE0A0793870787BA979C4383D7870074
:1010F000C207C18393F70708F5F301007244056145
:1011000082805D7186C6A2C480082326A4FC2324A5
:10111000B4FC2322C4FC2320D4FC232EE4FA232C89
:10112000F4FA232A04FBCD670327C4FC0A0793873C
:101130000787BA979C433E85EF603000854505459B
:10114000EF60206E032704FC93073012631DF70045
:101150000327C4FB930750126317F7008545054525
:10116000EF60E01E25A0032704FC89679387A7147E
:10117000631EF7000327C4FB89679387C7146317AF
:10118000F700854537152000EF60601C8327C4FCFD
:1011900091E785450565EF60C06825A00327C4FC7D
:1011A00085476317F70085451165EF60E06B11A86F
:1011B0000327C4FC89476316F70085452165EF6066
:1011C000A06A832704FC93F7F70F93068031054646
:1011D00085453E85EFF0CFCE8327C4FB93F7F70F0D
:1011E00093068031054685453E85EFF06FCD032798
:1011F00084FBC167F917630DF700832784FB93F71E
:10120000F70F93068034054681453E85EFF04FCBBE
:10121000032744FB9307F00F630DF700832744FB7C
:1012200093F7F70F93060031014685453E85EFF0B1
:101230002FC9232E04FC232004FE232204FE232492
:1012400004FE231604FE231E04FC93074010231FF4
:10125000F4FC231004FE032784FC85476305F70292
:10126000832784FC81CF032784FC89476303F7022B
:10127000032784FC8D476304F7020DA8231104FEA5
:10128000231204FE25A0231104FE85472312F4FE39
:1012900031A889472311F4FE231204FE01A88947CF
:1012A0002311F4FE85472312F4FE0100231704FEE8
:1012B00003A74182832744FCB357F7022317F4FEA8
:1012C00003A74182832744FCB377F70291E7835752
:1012D000E4FEFD172317F4FE0357E4FE9307F0071F
:1012E00063F7E700930780032317F4FE49A8035729
:1012F000E4FE9307F00363F7E70093070003231767
:10130000F4FEB5A80357E4FEFD4763F7E700930733
:1013100080022317F4FEA5A00357E4FEBD4763F740
:10132000E700930700022317F4FE91A80357E4FE99
:101330009D4763F6E700E1472317F4FE89A00357B2
:10134000E4FE8D4763F6E700C1472317F4FE05A8C6
:101350000357E4FE854763F6E700A1472317F4FE31
:1013600039A88357E4FE81C7231704FE09A8130692
:101370008022C9679385C7330145EF2040708357AA
:10138000E4FE2314F4FE930700202313F4FE231538
:1013900004FE231604FECD670327C4FC0A079387C7
:1013A0000787BA979C433E879307C4FDBE853A855D
:1013B000EF600060CD670327C4FC0A0793870787A7
:1013C000BA979C4385453E85EF60006E0100B640AC
:1013D000264461618280797122D60018232EA4FCF4
:1013E000232CB4FC8547A307F4FE0327C4FD0A079A
:1013F00093870190BA979C4399EB0327C4FD0A0792
:1014000093870190BA97032784FD98C315A00327FB
:10141000C4FD0A0793870190BA979C43032784FD74
:101420006316F7008547A307F4FE19A0A30704FE7F
:101430008347F4FE3E85325445618280011106CE19
:1014400022CC00102326A4FE8327C4FE81EB854511
:10145000856713850780EF60C03C6DA80327C4FE35
:1014600085476317F70085450545EF60E03F5DA0C0
:101470000327C4FE89476317F70085450945EF60D8
:10148000A03E49A80327C4FE8D476317F700854592
:101490001145EF60603DBDA80327C4FE9147631767
:1014A000F70085452145EF60203CADA00327C4FE31
:1014B00095476317F70085454145EF60E03A99A8E5
:1014C0000327C4FE99476318F700854513050002FA
:1014D000EF60803981A00327C4FE9D476317F700A2
:1014E00085450965EF60E03335A00327C4FEA147B9
:1014F0006318F700854537050800EF60803219A8AA
:101500000327C4FEA5476317F7008545370510007C
:10151000EF6020310100F240624405618280797100
:1015200006D622D40018232EA4FCB7370140938797
:1015300007C02326F4FE0327C4FDA54763ECE70894
:101540008327C4FD13972700CD679387C787BA9772
:101550009C438287B7370140938707C02326F4FE58
:1015600095A8B70700402326F4FEADA0B7070040BA
:10157000938707402326F4FEB1A8B717004093874E
:1015800007802326F4FEB9A0B7170040938707C051
:101590002326F4FE81A0B71700402326F4FE1DA8E1
:1015A000B7170040938707402326F4FE25A0B737DE
:1015B0000140938707402326F4FE29A8B75701402E
:1015C000938707C02326F4FE31A0B7570140232696
:1015D000F4FE010085450325C4FEEF60705701004D
:1015E000B250225445618280797122D60018232E90
:1015F000A4FCB7370140938707C02326F4FE2315C8
:1016000004FE0327C4FDA54763ECE7088327C4FD58
:1016100013972700CD679387478ABA979C438287A1
:10162000B7370140938707C02326F4FE95A8B70774
:1016300000402326F4FEADA0B70700409387074083
:101640002326F4FEB1A8B71700409387078023260E
:10165000F4FEB9A0B7170040938707C02326F4FE15
:1016600081A0B71700402326F4FE1DA8B71700403D
:10167000938707402326F4FE25A0B73701409387C0
:1016800007402326F4FE29A8B7570140938707C0D7
:101690002326F4FE31A0B75701402326F4FE0100B3
:1016A0000327C4FD0A0793878192BA979843894715
:1016B000631FF7008327C4FE83D7470213970701F0
:1016C00041838D47B357F7022315F4FE39A08327D2
:1016D000C4FE83D747022315F4FE8357A4FE3E853C
:1016E000325445618280797122D60018232EA4FCE1
:1016F000B7370140938707C02326F4FE0327C4FDB4
:10170000A54763ECE7088327C4FD13972700CD673F
:101710009387C78CBA979C438287B73701409387DA
:1017200007C02326F4FE95A8B70700402326F4FE41
:10173000ADA0B7070040938707402326F4FEB1A869
:10174000B7170040938707802326F4FEB9A0B71788
:101750000040938707C02326F4FE81A0B7170040FE
:101760002326F4FE1DA8B7170040938707402326C1
:10177000F4FE25A0B7370140938707402326F4FEE7
:1017800029A8B7570140938707C02326F4FE31A04C
:10179000B75701402326F4FE01008327C4FE23929D
:1017A00007020100325445618280797106D622D445
:1017B0000018232EA4FC232CB4FC85450325C4FD6E
:1017C0001939AA873E871306200FC96793854739C1
:1017D0003A85EF20C02A0327C4FD0A0793870190AA
:1017E000BA97054798C3B7370140938707C02326A8
:1017F000F4FE0327C4FDA54763ECE7088327C4FD77
:1018000013972700CD679387478FBA979C438287AA
:10181000B7370140938707C02326F4FE95A8B70782
:1018200000402326F4FEADA0B70700409387074091
:101830002326F4FEB1A8B71700409387078023261C
:10184000F4FEB9A0B7170040938707C02326F4FE23
:1018500081A0B71700402326F4FE1DA8B71700404B
:10186000938707402326F4FE25A0B73701409387CE
:1018700007402326F4FE29A8B7570140938707C0E5
:101880002326F4FE31A0B75701402326F4FE0100C1
:101890000325C4FD65360327C4FD0A07938781929B
:1018A000BA97032784FD98C3232004FE232204FE55
:1018B000231404FE032784FD85476315F702FD57B3
:1018C0002312F4FE03A74182B7470F009387072432
:1018D000B357F702C207C183FD17C207C1832310A4
:1018E000F4FE2DA8032784FD89476314F702FD57F2
:1018F0002312F4FE03A741828567938787BBB35702
:10190000F702C207C183FD17C207C1832310F4FE8B
:1019100031A0FD572312F4FE231004FE231304FE0E
:10192000231104FE230404FE930704FEBE85032551
:10193000C4FEEF60001D85450325C4FEEF60502105
:101940000100B250225445618280011122CE001064
:101950002326A4FEAE87A305F4FE0100CD6703276E
:10196000C4FE0A079387C791BA979C4383D70700A1
:10197000C207C18393F70708F5D3CD670327C4FED9
:101980000A079387C791BA979C433E878347B4FE63
:10199000C207C1832312F7000100724405618280EF
:1019A000011106CE22CC00102326A4FE2324B4FE6F
:1019B000832784FEB337F00093F7F70F3E871306B3
:1019C0000005C9679385C73E3A85EF20400B39A8CB
:1019D000832784FE138717002324E4FE83870700F0
:1019E00093F7F70FBE850325C4FE8537832784FE52
:1019F00083870700F1FF0100F240624405618280A5
:101A0000011106CE22CC00102326A4FEAE87A3052A
:101A1000F4FECD670327C4FE0A079387C791BA97E0
:101A20009C433E878347B4FE3E86930550523A85D9
:101A3000EF60B079138781848327C4FEBA9783C788
:101A4000070081453E85EF30B0068347B4FE81CF65
:101A5000138781848327C4FEBA9783C707003E8516
:101A6000EF30500119A8138781848327C4FEBA97E9
:101A700083C707003E85EF30D0010100F240624489
:101A800005618280011122CE00102326A4FE2324AA
:101A9000B4FECD670327C4FE0A079387C791BA97A0
:101AA0009C4383D70700C207C18393F707028DC702
:101AB000CD670327C4FE0A079387C791BA979C4353
:101AC00083D74700C207C18313F7F70F832784FE2C
:101AD0002380E700854711A081473E857244056158
:101AE0008280797106D622D40018232EA4FC232CE0
:101AF000B4FC232AC4FC2328D4FC032744FD8327F9
:101B000004FD3D8F8327C4FDB207F98F93B71700FB
:101B100093F7F70F3E871306A00AC9679385C73E60
:101B20003A85EF10D075832744FD13D787008327AC
:101B300004FDA183B307F74093B7170093F7F70F9E
:101B40003E871306B00AC9679385C73E3A85EF10F2
:101B50001073832744FD93F7F70FE146014685454F
:101B60003E85EFE0FFB5832704FD93F7F70F93065B
:101B70008004014681453E85EFE09FB485450545DB
:101B8000EF50304A032744FDC167FD17F98F0D67F9
:101B9000130707386387E7200D6713070738636962
:101BA000F7040567130757166381E71605671307E0
:101BB0005716636FF7001307F022638AE70C1307C9
:101BC00060306381E710130760126388E70865A639
:101BD000096713078736638BE7160D67130707122C
:101BE0006387E71809671307A7146380E71461A6E2
:101BF00015671307A738638EE72615671307A738FD
:101C00006362F7021167130787386380E72015675F
:101C1000130787126385E722116713074712638C46
:101C2000E71A91AE19671307C7386388E72A19675F
:101C30001307C7386368F7001967130767106384D1
:101C4000E72615AE1D671307E7106382E72C1D67B3
:101C50001307E7386387E72E39AEB7070140D44F43
:101C6000B7070140370700FC7D17758FD8CFB7073E
:101C70000140D843B70701406D9BD8C3B707014067
:101C8000D843B707014013674700D8C3EDA4B7078F
:101C90000140D44FB7070140370700FC7D17758F0F
:101CA000D8CFB7070140D44FB7070140370700042A
:101CB000558FD8CFB7070140D843B70701406D9B78
:101CC000D8C355ACB7070140D44FB7070140370719
:101CD00000FC7D17758FD8CFB7070140D44FB707E9
:101CE000014037070004558FD8CFB7070140D843CC
:101CF000B70701406D9BD8C3B7070140D843B7076A
:101D0000014013674700D8C3BDA4B7070140D843BB
:101D1000B70701405D9BD8C3B7070140D843B70759
:101D2000014013678700D8C3B9A4B7070140D8435F
:101D3000B70701401377F7FCD8C3B7070140D84372
:101D4000B707014013670701D8C335A4B70701409F
:101D5000D843B70701401377F7FCD8C3B707014052
:101D6000D843B707014013670703D8C329A4B707AF
:101D70000140D44FB70701403707FDFF7D17758F2E
:101D8000D8CFB7070140D44F832744FDA1831397D1
:101D90000701B70703007D8FB7070140558FD8CFE4
:101DA000D9AAB7070140D44FB70701403707FDFF55
:101DB0007D17758FD8CFB7070140D44F832744FDD7
:101DC000A18313970701B70703007D8FB707014071
:101DD000558FD8CF4DA2B7070140D44FB707014068
:101DE0003707F4FF7D17758FD8CFB7070140D44F61
:101DF000832744FDA18313972701B7070C007D8F2C
:101E0000B7070140558FD8CFBDA2B7070140D44FC7
:101E1000B70701403707F4FF7D17758FD8CFB70795
:101E20000140D44F832744FDA18313972701B707AF
:101E30000C007D8FB7070140558FD8CF2DAAB7076B
:101E40000140D44FB70701403707D0FF7D17758F8A
:101E5000D8CFB7070140D44F832744FDA183139700
:101E60004701B70730007D8FB7070140558FD8CFA6
:101E700019A2B7070140D44FB70701403707D0FF79
:101E80007D17758FD8CFB7070140D44F832744FD06
:101E9000A18313974701B70730007D8FB707014033
:101EA000558FD8CFC9A8B7070140D44FB707014015
:101EB000370740FF7D17758FD8CFB7070140D44F44
:101EC000832744FDA18313976701B707C0007D8F67
:101ED000B7070140558FD8CF79A8B7070140D44F35
:101EE000B7070140370740FF7D17758FD8CFB70779
:101EF0000140D44F832744FDA18313976701B7079F
:101F0000C0007D8FB7070140558FD8CFADA0B70770
:101F10000140D44FB7070140370700FD7D17758F8B
:101F2000D8CFB7070140D44F832744FDA18313972F
:101F30008701B70700037D8FB7070140558FD8CFC2
:101F40001DA8B7070140D44FB7070140370700FD70
:101F50007D17758FD8CFB7070140D44F832744FD35
:101F6000A18313978701B70700037D8FB70701404F
:101F7000558FD8CF01008327C4FD91E785451165B2
:101F8000EF50300A69A80327C4FD85476318F7009E
:101F9000854537050200EF50300D51A00327C4FDE1
:101FA00089476318F700854537050400EF50D00BCB
:101FB000BDA00327C4FD8D476318F700854537058D
:101FC0000800EF50700AA1A80327C4FD91476318C9
:101FD000F700854537051000EF50100989A0032749
:101FE000C4FD95476318F700854513050004EF50BD
:101FF000B00735A00327C4FD99476318F70085454E
:1020000013050008EF50500619A80327C4FD9D478B
:102010006317F700854513050010EF50F0042320E7
:1020200004FE232204FE232404FE232604FE832729
:1020300084FD2320F4FE231204FE231304FE231444
:1020400004FE231604FEB1472315F4FECD670327D3
:10205000C4FD0A079387C791BA979C433E879307AD
:1020600004FEBE853A85EF60006DCD670327C4FD91
:102070000A079387C791BA979C4385453E85EF60D1
:10208000D00E0100B250225445618280411106C633
:1020900022C4000883A701860547638BE700638697
:1020A000070C0947638DE7000D47638FE702D9A04E
:1020B00083A7C1851387170023AEE18465A883A792
:1020C000C1851387170023AEE18403A7C185A54707
:1020D00063FFE708B7070020938707049C4B11674D
:1020E000D8CB23AE018461A003A741868547631244
:1020F000F7081305F008EFE0EFD1AA87B9CF19452B
:10210000EFF08FCEAA873E8783A7C1851D8F9307E7
:10211000600963F0E7061945EFF0EFDC83A7C1859E
:10212000D3F717D05385F720EFC0C072C96703A655
:10213000874483A6C744EFB04037AA872E883E85E0
:10214000C285EFC0E059AA87139707014183239402
:10215000E180094723A2E18629A81945EFF0CFC8FD
:10216000AA873E8723AEE18429A0010021A00100B7
:1021700011A001000100B2402244410182804111BE
:1021800006C622C4000883A701860947637CF700BE
:102190000D47639AE7001945EFF0EFD4054723A2F6
:1021A000E18611A001000100B24022444101828079
:1021B000011106CE22CC0010232204FE83C7918693
:1021C0006381071409A8930734FE0546BE8513856D
:1021D0000195EF204002930734FEBE851D45EFF0C8
:1021E0007F8AAA87EDF3034734FEA947631BF710E4
:1021F00099472322F4FE130744FE930784FE854685
:102200003A86BE8513850195EF20805D930784FE95
:10221000138737000D46C967938507453A85EFD088
:10222000607BAA879DEB03A7018789476304F70CAE
:10223000054723A8E18613850195EF103074AA871E
:102240002322F4FE930744FE81463E869385C19E79
:1022500013850195EF20C05871A8930784FE13875A
:1022600037000D46C967938547453A85EFD080769C
:10227000AA879DEB03A7C1868947630DF70605472B
:1022800023A6E18613850195EF10506FAA872322BC
:10229000F4FE930744FE81463E869385C1961385DE
:1022A0000195EF20E053B9A0930784FE1387370010
:1022B0000D46C967938587453A85EFD0A071AA87F7
:1022C00095EB03A7418789476306F702054723AAD1
:1022D000E18613850195EF10706AAA872322F4FE28
:1022E000930744FE81463E869385C1A613850195DA
:1022F000EF20004F13850195EF10B043054723846D
:10230000E1860100F240624405618280011106CE3F
:1023100022CC0010AA87A307F4FEB70700209387FA
:102320000704DC4713070020D8CB8347F4FEBE85A3
:102330000545EFE03FBFB707002093870704DC4760
:102340001307002098CB0100F240624405618280AF
:10235000011106CE22CC0010AA8736872317F4FE7F
:10236000AE872316F4FEB2872315F4FEBA87231432
:10237000F4FE83C70181C207C1830357E4FEB3376C
:10238000F70093F7F70F3E871306200BC967938575
:1023900007543A85EF10A06E83C71181C207C1832D
:1023A0000357C4FEB337F70093F7F70F3E871306C2
:1023B000300BC967938507543A85EF10406C83C78B
:1023C0000181C207C1830357A4FEB337F70093F717
:1023D000F70F3E871306400BC967938507543A856C
:1023E000EF10E06983C71181C207C183035784FEE0
:1023F000B337F70093F7F70F3E871306500BC96703
:10240000938507543A85EF10806783A7C1870547F6
:10241000638CE70681CB0947638AE70C0D47638924
:10242000E71249AA1305A002D5358357E4FE938726
:102430008702C207C183BE850545EFE01FB48357FD
:10244000A4FE93878702C207C183BE850545EFE0DE
:10245000DFB21305B0025D3D8357C4FE9387470387
:10246000C207C183BE850545EFE03FB1835784FEB7
:1024700093874703C207C183BE850545EFE0FFAFE1
:102480001305C00261353DA21305A00241358357F3
:10249000E4FE93878702C207C183BE850545EFE04E
:1024A000DFAD8357A4FE93878702C207C183BE8531
:1024B0000545EFE09FAC1305B002893D8357C4FE8C
:1024C00093875703C207C183BE850545EFE0FFAA86
:1024D000835784FE93875703C207C183BE85054592
:1024E000EFE0BFA91305C0021535E9A01305A0024E
:1024F000313D8357E4FE93874703C207C183BE85FE
:102500000545EFE09FA78357A4FE93874703C207C3
:10251000C183BE850545EFE05FA61305B002FD331C
:102520008357C4FE93878702C207C183BE850545D2
:10253000EFE0BFA4835784FE93878702C207C1835D
:10254000BE850545EFE07FA31305C002C1339DA002
:102550001305A002653B8357E4FE93875703C20728
:10256000C183BE850545EFE05FA18357A4FE938735
:102570005703C207C183BE850545EFE01FA01305C1
:10258000B00269338357C4FE93878702C207C183B1
:10259000BE850545EFE07F9E835784FE93878702C3
:1025A000C207C183BE850545EFE03F9D1305C0020C
:1025B000B13B01000100F240624405618280797103
:1025C00006D622D400189307C4FD3E85EF10A05113
:1025D0008547231EF4FC83C70181C207C183231FE3
:1025E000F4FC83C71181C207C1832310F4FE83A7C3
:1025F000C1800547638AE70099EF99472301F4FEFC
:10260000A147A301F4FE09A8A1472301F4FEC14795
:10261000A301F4FE11A00100B7370000938767AE55
:102620002324F4FEB7270000938747642326F4FE93
:102630009307C4FD3E85EF10A0500100B250225414
:1026400045618280011106CE22CC26CA00100A857F
:10265000AA8403C50181AA88FD18232214FF2A83B6
:1026600081439358C3011397430033E7E80093165F
:102670004300AA85014613D7C501131846003368E5
:10268000070193974500AA878607BD0791839207A4
:102690003301F1408A878507858386072320F4FE6E
:1026A000232404FE232604FEB70700209387070493
:1026B000DC4713070010D8CB83C70181C207C18351
:1026C000FD1713970701418383C71181C207C18397
:1026D000FD17C207C183BE863A86814501458D3903
:1026E000232404FE05A003D78187832604FE8327C5
:1026F00084FE8607B6972390E700832784FE85072C
:102700002324F4FE83C701813E87832784FEE3EC04
:10271000E7FC232604FE39A8032704FE83C70181B2
:102720003E86BA850545EFE09F8F8327C4FE850767
:102730002326F4FE83C711813E878327C4FEE3ED81
:10274000E7FCB707002093870704DC471307001056
:1027500098CB26810100130104FEF2406244D2446A
:1027600005618280011122CE00102326A4FE0327DA
:10277000C4FE23AEE18683A7C18705476376F700D1
:102780000D476363F70209A841572388E1801307C7
:1027900070F8A388E18009A8130770F82388E18006
:1027A0004157A388E18001000100724405618280E5
:1027B000011122CE0010AA872E872317F4FEBA87B4
:1027C0002316F4FE0357E4FE2395E1800357C4FE6D
:1027D000239CE18601007244056182806971232691
:1027E000111223248112001AAA87AE863287231F72
:1027F000F4ECB687231EF4ECBA87A30DF4EC83C780
:102800000181C207C1830357E4EDB337F70093F7A3
:10281000F70F3E871306601DC967938507543A85F5
:10282000EF10E02583C71181C207C1830357C4EDB0
:10283000B337F70093F7F70F3E871306701DC9678C
:10284000938507543A85EF108023A30704FE2307DE
:1028500004FEB707002093870704DC471307001026
:10286000D8CB83A7C1800547638AE70E639D072401
:102870008357E4ED95071396070141828357C4ED12
:102880009D0793960701C1820357C4ED8357E4ED7A
:10289000BA853E85EFF0DFABA30704FE55A08307A2
:1028A000B4ED138707FE8346F4FE4D66BA878607AC
:1028B000BA9786071307C6F2BA97B69783C7070079
:1028C000A306F4FE230704FE95A08347D4FE858B60
:1028D0009DC38346F4FE0347E4FEBA878607BA9792
:1028E0008607B69703D7A1808607930604FFB6979D
:1028F000239CE7EE15A08346F4FE0347E4FEBA8767
:102900008607BA978607B69703D781878607930607
:1029100004FFB697239CE7EE8347D4FE8583A30686
:10292000F4FE8347E4FE85072307F4FE0347E4FE35
:102930009D47E3FCE7F88347F4FE8507A307F4FE11
:102940000347F4FE9547E3FCE7F4930784EE130690
:102950000003BE850545EFE08FECBDA28357E4ED93
:102960009D071396070141828357C4EDBD079396D7
:102970000701C1820357C4ED8357E4EDBA853E8554
:10298000EFF01F9DA30704FE0DA28307B4ED93860D
:1029900007FE8347F4FE4D6792061307C7933697E9
:1029A000BA9783C707002306F4FE8307B4ED938626
:1029B00007FE8347F4FEA1074D6792061307C793EE
:1029C0003697BA9783C70700A305F4FE230704FED2
:1029D000A1A88347C4FE858B85C30347F4FE8347C4
:1029E000E4FE8E07BA9703D7A1808607930604FFFB
:1029F000B697239CE7EE39A80347F4FE8347E4FE2D
:102A00008E07BA9703D781878607930604FFB69788
:102A1000239CE7EE8347C4FE85832306F4FE8347A9
:102A2000E4FE85072307F4FE0347E4FE9D47E3F237
:102A3000E7FA230704FE85A08347B4FE858B95C380
:102A40000347F4FE8347E4FE8E07BA979387070493
:102A500003D7A1808607930604FFB697239CE7EE71
:102A60000DA00347F4FE8347E4FE8E07BA979387D1
:102A7000070403D781878607930604FFB697239C34
:102A8000E7EE8347B4FE8583A305F4FE8347E4FEA7
:102A900085072307F4FE0347E4FE9D47E3FEE7F8BE
:102AA0008347F4FE8507A307F4FE0347F4FE9D4722
:102AB000E3FDE7EC930784EE13060008BE850545A9
:102AC000EFE0EFD511A00100B707002093870704BE
:102AD000DC471307001098CB01008320C1120324A8
:102AE000811255618280797106D622D40018AA8796
:102AF0002E87232CC4FC231FF4FCBA87231EF4FC6E
:102B000083C70181C207C1830357E4FDB337F700D0
:102B100093F7F70F3E871306D022C96793850754B2
:102B20003A85EF00D07583C71181C207C18303576F
:102B3000C4FDB337F70093F7F70F3E871306E02283
:102B4000C967938507543A85EF007073231704FE15
:102B500071A083A7C18005476381E704B5EB0357E4
:102B6000E4FEBA878607BA97860713970701418361
:102B70008357E4FDBA9793960701C1828357E4FE19
:102B8000032784FDBA97038707008357C4FD3A865D
:102B9000BE853685EFF09FC42DA88357E4FE8E07CF
:102BA0001397070141838357E4FDBA979396070172
:102BB000C1828357E4FE032784FDBA970387070089
:102BC0008357C4FD3A86BE853685EFF03FC111A01C
:102BD00001008357E4FE85072317F4FE8357E4FEC4
:102BE000032784FDBA9783870700A5F70100B25039
:102BF000225445618280397106DE22DC8000AA877A
:102C00002324C4FC36872317F4FCAE872316F4FC78
:102C1000BA87A303F4FC83C70181C207C1830357AA
:102C2000E4FCB337F70093F7F70F3E871306B024A1
:102C3000C967938507543A85EF00706483C7118193
:102C4000C207C1830357C4FCB337F70093F7F70FEC
:102C50003E871306C024C967938507543A85EF0061
:102C60001062834774FCB337F00093F7F70F3E8789
:102C70001306D024C967938507543A85EF00306066
:102C8000834774FC93B7B70093F7F70F3E8713069B
:102C9000E024C967938507543A85EF00505E832787
:102CA00084FC2326F4FE85472324F4FE9307C4FD09
:102CB000314681453E85EFD0AFD4834774FC85070C
:102CC0003E879307C4FD3A86930500023E85EFD008
:102CD0002FD3034774FCA54763EBE70231A8032712
:102CE00084FEBA878A07BA9786072324F4FE8347AF
:102CF00074FCFD17A303F4FC834774FCEDF3032776
:102D0000C4FE832784FEB367F7022326F4FE9307ED
:102D1000C4FD8325C4FE3E85EF20402B9306C4FDF1
:102D20000357C4FC8357E4FC3686BA853E85653B71
:102D30000100F250625421618280397106DE22DC8A
:102D40008000AA872324C4FC36872317F4FCAE87AF
:102D50002316F4FCBA87A303F4FC83C70181C207DE
:102D6000C1830357E4FCB337F70093F7F70F3E87AF
:102D700013062027C967938507543A85EF00305022
:102D800083C71181C207C1830357C4FCB337F7005F
:102D900093F7F70F3E8713063027C96793850754CB
:102DA0003A85EF00D04D834774FCB337F00093F7BA
:102DB000F70F3E8713064027C967938507543A8566
:102DC000EF00F04B834774FC93B7B70093F7F70F0E
:102DD0003E8713065027C967938507543A85EF004D
:102DE000104A832784FC2326F4FE85472324F4FE1F
:102DF0009307C4FD314681453E85EFD06FC0034740
:102E000074FC9307C4FD3A86930500023E85EFD01B
:102E10002FBF034774FCA54763EBE70231A80327E4
:102E200084FEBA878A07BA9786072324F4FE83476D
:102E300074FCFD17A303F4FC834774FCEDF38327B4
:102E400084FE0327C4FEB377F7022326F4FE93071C
:102E5000C4FD8325C4FE3E85EF20A0289306C4FD53
:102E60000357C4FC8357E4FC3686BA853E85EFF0F1
:102E70009FC70100F250625421618280411106C651
:102E800022C400081308F00FC167F917056713077C
:102E9000F70285669386D60237A64A0413060620F3
:102EA00081450545EFE0EFA5C1460146854513057F
:102EB0009006EFD0FF80C146014685451305A00668
:102EC000EFD01F80C1460546854513058006EFD02B
:102ED0002FFFC1460546854513050006EFD04FFE7E
:102EE00083A7C1873E85EFF0FF8703D7A18083D7F3
:102EF0008187BE853A85EFF0BF8BB70700209387A7
:102F00000704DC4713070040D8CB1305800CEFD033
:102F10004FE6B707002093870704DC4713070040FC
:102F200098CB13054006EFD0CFE4B7070020938776
:102F30000704DC4713070010D8CB13056003EFF03C
:102F4000EFBC13054006EFD0CFE283A7C18705474A
:102F50006380E70281CB09476382E7020D47638400
:102F6000E70205A89305000A0545EFD0BFFB15A0B1
:102F7000930500070545EFD0FFFA21A881450545D7
:102F8000EFD05FFA39A09305000C0545EFD09FF90B
:102F900001001305A003EFF06FB795450545EFD08D
:102FA0007FF81305200BEFF06FB6B1450545EFD064
:102FB0007FF7B1450545EFD0FFF681450545EFD0D8
:102FC0007FF6930530030545EFD0DFF59305300319
:102FD0000545EFD03FF51305700BEFF02FB39305C8
:102FE00050030545EFD01FF41305B00BEFF00FB2FF
:102FF000930570030545EFD0FFF21305000CEFF0C9
:10300000EFB09305C0020545EFD0DFF11305200CAA
:10301000EFF0CFAF85450545EFD0DFF01305300C5D
:10302000EFF0CFAEC9450545EFD0DFEF1305400CFB
:10303000EFF0CFAD930500020545EFD0BFEE1305CD
:10304000600CEFF0AFACBD450545EFD0BFED13050B
:10305000000DEFF0AFAB9305400A0545EFD09FECB4
:103060009305100A0545EFD0FFEB1305000EEFF0B6
:10307000EFA99305000D0545EFD0DFEA9145054521
:10308000EFD05FEAB5450545EFD0DFE9C545054519
:10309000EFD05FE9CD450545EFD0DFE89305B002FD
:1030A0000545EFD03FE89305F0030545EFD09FE7D6
:1030B000930540050545EFD0FFE69305C00405459F
:1030C000EFD05FE6E1450545EFD0DFE5B5450545C5
:1030D000EFD05FE5AD450545EFD0DFE4FD450545A3
:1030E000EFD05FE4930530020545EFD0BFE3130551
:1030F000100EEFF0AFA19305000D0545EFD09FE254
:1031000091450545EFD01FE2B1450545EFD09FE160
:10311000C5450545EFD01FE1CD450545EFD09FE002
:103120009305C0020545EFD0FFDF9305F003054589
:10313000EFD05FDF930540040545EFD0BFDE930578
:1031400010050545EFD01FDE9305F0020545EFD0D1
:103150007FDDFD450545EFD0FFDCFD450545EFD0A2
:103160007FDC930500020545EFD0DFDB93053002DD
:103170000545EFD03FDB13051002EFF02F994545D1
:10318000EFF0CF9813058007EFD0AFBE1305900284
:10319000EFF0CF97B707002093870704DC471307AA
:1031A000001098CBEFF00FCAEFF06FC10100B240F2
:1031B000224441018280411122C6000801003244AC
:1031C00041018280411122C60008B717024098438E
:1031D000B71702401367170098C3B7170240D443CC
:1031E000B71702403707FFF8758FD8C3B7170240EB
:1031F0009443B71702403707F7FE7D17758F98C3C2
:10320000B71702409443B71702403707FCFF7D17FA
:10321000758F98C3B7170240D443B71702403707DA
:1032200081FF7D17758FD8C3B717024037079F00FE
:1032300098C70100324441018280797106D622D4B8
:103240000018232EA4FCBD3F232604FE232404FEE5
:10325000B71702409443B71702404167558F98C390
:10326000B71702409843B7070200F98F2324F4FEF2
:103270008327C4FE85072326F4FE832784FE91E777
:103280000327C4FE8567E31DF7FCB7170240984388
:10329000B7070200F98F89C785472324F4FE19A0D8
:1032A000232404FE032784FE85476312F71637178D
:1032B0000240B71702405843D8C337170240B71728
:1032C00002405843D8C337170240B717024058434B
:1032D000D8C3B7170240D443B71702403707C1FF1E
:1032E0007D17758FD8C30327C4FDB747950893870B
:1032F0000740631BF700B7170240D443B7170240DB
:103300004167558FD8C355A80327C4FDB7172707B2
:10331000938707E0631CF700B7170240D443B71741
:10332000024037073900558FD8C341A80327C4FD91
:10333000B7E7B80593870780631CF700B71702400B
:10334000D443B717024037072900558FD8C3B5A01B
:103350000327C4FDB7A74A0493870720631CF7001F
:10336000B7170240D443B717024037071D00558FE7
:10337000D8C3A1A00327C4FDB777DC02938707C099
:10338000631CF700B7170240D443B7170240370752
:103390001100558FD8C315A00327C4FDB7376E01A0
:1033A00093870760631BF700B7170240D443B71732
:1033B000024037070500558FD8C3B7170240944322
:1033C000B717024037070001558F98C30100B717A0
:1033D00002409843B7070002F98FF5DBB7170240A8
:1033E000D843B7170240719BD8C3B7170240D843E0
:1033F000B717024013672700D8C30100B717024070
:10340000DC4313F7C700A147E31AF7FE11A001A0A0
:10341000B250225445618280011106CE22CC0010A8
:103420002326A4FE0327C4FE23A2E182EFF09FD946
:103430000325C4FEEFF07FE0EF1010700100F240B2
:10344000624405618280411122C60008010001002A
:10345000324441018280011106CE22CC0010232685
:1034600004FE232404FE232604FE25A0232404FEB8
:1034700039A0D13F832784FE85072324F4FE032748
:1034800084FEC167E367F7FE8327C4FE8507232612
:10349000F4FE0327C4FE9307F00FE3F9E7FC0100F5
:1034A000F240624405618280411122C60008010099
:1034B000324441018280011106CE22CC0010232625
:1034C000A4FE8325C4FE0945EFE08FCD0100F24044
:1034D000624405618280130101D923261126232429
:1034E000812623229126801C232EA4D8232CB4D8F5
:1034F000232AC4D82328D4D8231504FE231404FE79
:10350000231304FE231204FE231104FE032584D991
:10351000EFC0204BAA87C207C1872313F4FE83D7CD
:1035200081B489C7938781B49C4B829783C70188F4
:1035300093F7F70F638D074A83D781B463870744F6
:10354000938781B4D447835724FE1397070141879B
:1035500093170701C1838507C207C183C207C187CB
:103560002311F4FE93170701C1830326C4D9BE8536
:1035700001458296832784D92326F4FE032584D926
:10358000EFC02044AA87C207C1872313F4FE9387A4
:1035900081B483D727003E87938781B483C76700B0
:1035A000B347F702C207C1872312F4FE0100832745
:1035B000C4FE138717002326E4FE83870700E5FB7C
:1035C000231404FEA1A88327C4FEFD172326F4FEBE
:1035D0008327C4FE038707009307F002630AF700FE
:1035E0008327C4FE038707009307C005631BF7000A
:1035F000835784FEC207C1838507C207C183231492
:10360000F4FE835764FEC207C187C207C183FD175A
:10361000C207C183C207C1872313F4FE835784FE08
:10362000139707014183854763E8E700835764FEEA
:10363000C207C187E3D907F8835764FEC207C18771
:1036400063C207028327C4FE85072326F4FE1307FF
:1036500004EE0326C4FEC9679385075B3A85EFC075
:10366000E0311DA8835784FEC207C18381EF130791
:1036700004EE0326C4FEC9679385C75B3A85EFC095
:10368000E02F19A8130704EE0326C4FEC96793852B
:10369000075B3A85EFC0802E231504FE21AA231470
:1036A00004FE59A0930704EE3E85EFC080312A87BF
:1036B000835784FEC207C183BE868357A4FEC20718
:1036C000C1833E86835744FEC207C187B307F60213
:1036D000B6976367F706835784FEC207C1833E87A8
:1036E0008357A4FEC207C183BE86835744FEC20728
:1036F000C187B387F602BA97035784FE4207418316
:10370000BA86130704FFBA97038707EF930704FFEE
:10371000B6972388E7EA835784FEC207C1838507EB
:10372000C207C1832314F4FE835784FEC207C183FA
:103730003E87835744FEC207C187E345F7F611A0D1
:103740000100835784FEC207C183130704FFBA97A1
:10375000238807EA938781B403A8C700938781B4BD
:1037600083C77700139707014183835724FE9396FD
:103770000701C18693970601C1838507C207C183EC
:10378000C207C1872311F4FE93970601C183B307D3
:10379000F702C207C183130704EA3A86BE850145D2
:1037A00002988357A4FEC207C1838507C207C1835D
:1037B0002315F4FE8357A4FEC207C183BE8493077A
:1037C00004EE3E85EFC0E01F2A87835744FEC20700
:1037D000C187B357F7028507E3E3F4EC130704EE60
:1037E000032644D9C9679385C75C3A85EFC00019A1
:1037F000938781B403A8C700938781B483C77700F8
:10380000139707014183835724FE93960701C186CE
:1038100093970601C1838507C207C183C207C18789
:103820002311F4FE93970601C183B307F702C20781
:10383000C183130704EE3A86BE85014502988327AB
:1038400004D96386071A231504FE21AA231404FE53
:1038500059A0032504D9EFC0C0162A87835784FED8
:10386000C207C183BE868357A4FEC207C1833E86BA
:10387000835744FEC207C187B307F602B697636851
:10388000F706835784FEC207C1833E878357A4FE91
:10389000C207C183BE86835744FEC207C187B38770
:1038A000F602BA973E87832704D9BA97035784FE56
:1038B00042074183BA8603870700930704FFB69740
:1038C0002388E7EA835784FEC207C1838507C207BE
:1038D000C1832314F4FE835784FEC207C1833E874D
:1038E000835744FEC207C187E345F7F611A00100E4
:1038F000835784FEC207C183130704FFBA97238846
:1039000007EA938781B403A8C700938781B483C76C
:103910007700139707014183835724FE939607018D
:10392000C18693970601C1838507C207C183C20779
:10393000C1872311F4FE93970601C183B307F702F1
:10394000C207C183130704EA3A86BE85014502987F
:103950008357A4FEC207C1838507C207C18323150D
:10396000F4FE8357A4FEC207C183BE84032504D995
:10397000EFC020052A87835744FEC207C187B3578B
:10398000F7028507E3E4F4EC9DA0930704DA13063D
:10399000001081453E85EFC0BF86938781B49C4768
:1039A0000325C4D98297832704D999CF130504DA54
:1039B000032704D9832644D9032684D9C96793856C
:1039C000875DEFB0B07B29A8130704DA832644D9BA
:1039D000032684D9C9679385475F3A85EFB0107A8B
:1039E000938781B49847930704DA3E8502970100D4
:1039F0008320C12603248126832441261301012725
:103A00008280797106D622D40018232EA4FC232CA0
:103A1000B4FC232AC4FC232604FEA9A00100CD6720
:103A20009387C7919C47930500043E85EF5000099A
:103A3000AA87F5D7CD679387C7919C47BE86832712
:103A400084FD13871700232CE4FC83870700C2073B
:103A5000C183BE853685EF5080038327C4FE85076A
:103A60002326F4FE0327C4FE832744FDE348F7FA28
:103A7000832744FD3E85B250225445618280011166
:103A800006CE22CC0010AA872324B4FE2322C4FE33
:103A9000A307F4FE8347F4FEB1E383C7818293F763
:103AA000F70F8DCF83C7118891C301A083C71188F9
:103AB000850713F7F70FA380E188EF103005EFF0CB
:103AC000BF9E8146032644FE832584FEC967138575
:103AD000C760EFF05FA0EFF01F98E5B70100F2407C
:103AE000624405618280011122CE00102326A4FECB
:103AF0008327C4FE239007008327C4FE7D572391AC
:103B0000E7008327C4FE7D572392E7008327C4FE86
:103B10007D572383E7008327C4FE7D57A383E700F7
:103B20008327C4FE23A407008327C4FE23A607001F
:103B30008327C4FE23A80700010072440561828028
:103B4000011122CE00102326A4FE8327C4FE03D732
:103B500007002394E1B48327C4FE03D7270093878B
:103B600081B42391E7008327C4FE03D747009387DE
:103B700081B42392E7008327C4FE03C767009387BD
:103B800081B42383E7008327C4FE03C777009387AC
:103B900081B4A383E7008327C4FE9847938781B449
:103BA00098C78327C4FED847938781B4D8C7832793
:103BB000C4FE984B938781B498CB05472380E18856
:103BC0000100724405618280797106D622D4001802
:103BD0009307C4FD3E85EFF01FF1B73700009387D0
:103BE000674B2322F4FE9307C4FD3E85913F89670E
:103BF0009386B70289671386A702F167938507202A
:103C00000945EFD01FEE930600041386C1AE81452F
:103C10001385C1B2EF10001785450945EFD05FDE6F
:103C20000100B250225445618280011122CE001061
:103C30002326A4FE2324B4FE8327C4FE03C79700D3
:103C400083C6A700A206558F83C6B700C206558F4C
:103C500083C7C700E207D98F3E87832784FE3E973C
:103C60008327C4FE9375F70F83C69700818A368633
:103C7000AE86D18EA384D7009356870093F5F60FB6
:103C800083C6A700818A3686AE86D18E2385D7006B
:103C90009356070193F5F60F83C6B700818A3686DF
:103CA000AE86D18EA385D7001356870103C7C70000
:103CB000018BBA863287558F2386E70055A083276C
:103CC000C4FE03C7970083C6A700A206558F83C60C
:103CD000B700C206558F83C7C700E207D98F3E865B
:103CE0008327C4FE03C7570183C66701A206558F09
:103CF00083C67701C206558F83C78701E207D98F34
:103D00003307F6408327C4FE9375F70F83C69700E9
:103D1000818A3686AE86D18EA384D70093568700DB
:103D200093F5F60F83C6A700818A3686AE86D18EBC
:103D30002385D7009356070193F5F60F83C6B70086
:103D4000818A3686AE86D18EA385D7001356870129
:103D500003C7C700018BBA863287558F2386E700D9
:103D60008327C4FE03C7570183C66701A206558F88
:103D700083C67701C206558F83C78701E207D98FB3
:103D80003E868327C4FE03C7970083C6A700A2060A
:103D9000558F83C6B700C206558F83C7C700E20799
:103DA000D98FE3FEC7F001007244056182800111E2
:103DB00022CE00102326A4FE2324B4FE8327C4FEB3
:103DC00003C7D70083C6E700A206558F83C6F70056
:103DD000C206558F83C70701E207D98F3E87832725
:103DE00084FE3E978327C4FE9375F70F83C6D700E2
:103DF000818A3686AE86D18EA386D70093568700F9
:103E000093F5F60F83C6E700818A3686AE86D18E9B
:103E10002387D7009356070193F5F60F83C6F70063
:103E2000818A3686AE86D18EA387D7001356870146
:103E300003C70701018BBA863287558F2388E700B5
:103E400055A08327C4FE03C7D70083C6E700A20698
:103E5000558F83C6F700C206558F83C70701E20757
:103E6000D98F3E868327C4FE03C7570183C66701E7
:103E7000A206558F83C67701C206558F83C7870177
:103E8000E207D98F3307F6408327C4FE9375F70FF7
:103E900083C6D700818A3686AE86D18EA386D700A8
:103EA0009356870093F5F60F83C6E700818A36861E
:103EB000AE86D18E2387D7009356070193F5F60F70
:103EC00083C6F700818A3686AE86D18EA387D70057
:103ED0001356870103C70701018BBA863287558FB6
:103EE0002388E7008327C4FE03C7570183C6670101
:103EF000A206558F83C67701C206558F83C78701F7
:103F0000E207D98F3E868327C4FE03C7D70083C646
:103F1000E700A206558F83C6F700C206558F83C7F8
:103F20000701E207D98FE3FEC7F001007244056183
:103F30008280797106D622D40018232EA4FC832710
:103F4000C4FDB337F00093F7F70F3E871306500513
:103F5000C967938587623A85EFF07FB2232604FE16
:103F60008327C4FD83C7070093E7170013F7F70FF4
:103F70008327C4FD2380E7008327C4FD03C7970080
:103F8000018BA384E70003C7A700018B2385E7000B
:103F900003C7B700018BA385E70003C7C700018BE8
:103FA0002386E7008327C4FD03C7D700018BA386C0
:103FB000E70003C7E700018B2387E70003C7F7008B
:103FC000018BA387E70003C70701018B2388E70064
:103FD0008327C4FD03C7570183C66701A206558F17
:103FE00083C67701C206558F83C78701E207D98F41
:103FF0003E878327C4FD9375F70F83C61701818A17
:104000003686AE86D18EA388D7009356870093F567
:10401000F60F83C62701818A3686AE86D18E238924
:10402000D7009356070193F5F60F83C63701818AAF
:104030003686AE86D18EA389D7001356870103C773
:104040004701018BBA863287558F238AE700832781
:10405000C4FD03C7170083C62700A206558F83C679
:104060003700C206558F83C74700E207D98F05473F
:10407000638DE70489C709476380E70AEDA08327BA
:10408000C4FD03C7570083C66700A206558F83C6C9
:104090007700C206558F83C78700E207D98F3E8518
:1040A0008327C4FD03C7570183C66701A206558F46
:1040B00083C67701C206558F83C78701E207D98F70
:1040C0003E868145EFC0CF9379A88327C4FD03C7FF
:1040D000570083C66700A206558F83C67700C206C5
:1040E000558F83C78700E207D98F3E858327C4FD9C
:1040F00003C7570183C66701A206558F83C67701A0
:10410000C206558F83C78701E207D98F86073E868F
:104110008145EFC0EF8E81A88327C4FD03C75700F8
:1041200083C66700A206558F83C67700C206558FE7
:1041300083C78700E207D98F3E858327C4FD03C765
:10414000570183C66701A206558F83C67701C20651
:10415000558F83C78701E207D98F8A073E8681453D
:10416000EFC00F8A01008327C4FD23800700832747
:10417000C4FE3E85B250225445618280011106CEB4
:1041800022CC00102326A4FE8327C4FEB337F00000
:1041900093F7F70F3E8713066007C9679385876219
:1041A0003A85EFF0DF8D8327C4FE03C7570183C62E
:1041B0006701A206558F83C67701C206558F83C754
:1041C0008701E207D98F3E868327C4FE03C7170104
:1041D00083C62701A206558F83C63701C206558FB5
:1041E00083C74701E207D98FB307F6403E85F24007
:1041F000624405618280797106D622D40018232E8C
:10420000A4FC232CB4FC232AC4FC8327C4FDB337AD
:10421000F00093F7F70F3E871306000BC9679385ED
:1042200087623A85EFF0BF85232604FE232404FE2F
:10423000832784FD89E78D472326F4FE59AB832726
:10424000C4FD83C70700958B93F7F70F89C7914784
:104250002326F4FEBDAB8327C4FD83C7070093E785
:10426000470013F7F70F8327C4FD2380E700832758
:10427000C4FD03C7170183C62701A206558F83C655
:104280003701C206558F83C74701E207D98F3E87A2
:10429000832744FD6361F7528327C4FD03C7570199
:1042A00083C66701A206558F83C67701C206558F64
:1042B00083C78701E207D98F3E868327C4FD03C7E2
:1042C000970083C6A700A206558F83C6B700C20613
:1042D000558F83C7C700E207D98FB307F640232461
:1042E000F4FE032744FD832784FE63F3E72E832730
:1042F000C4FD03C7170083C62700A206558F83C6D7
:104300003700C206558F83C74700E207D98F05479C
:104310006385E70E89C709476386E71C11A98327D0
:10432000C4FD03C7570083C66700A206558F83C626
:104330007700C206558F83C78700E207D98F3E8674
:104340008327C4FD03C7970083C6A700A206558F25
:1043500083C6B700C206558F83C7C700E207D98F4F
:10436000B297032684FE832584FD3E85EFA0701757
:10437000832584FE0325C4FDEFF03F8B8327C4FD16
:1043800003C7570083C66700A206558F83C6770010
:10439000C206558F83C78700E207D98F3E868327E1
:1043A000C4FD03C7970083C6A700A206558F83C626
:1043B000B700C206558F83C7C700E207D98FB3067F
:1043C000F600032784FD832784FEB305F700032747
:1043D00044FD832784FEB307F7403E863685EFA071
:1043E0005010032744FD832784FEB307F740BE85A2
:1043F0000325C4FDEFF07F8325AE8327C4FD03C7EB
:10440000570083C66700A206558F83C67700C20691
:10441000558F83C78700E207D98F3E868327C4FD67
:1044200003C7970083C6A700A206558F83C6B700AF
:10443000C206558F83C7C700E207D98F86073307A7
:10444000F600832784FE86073E86832584FD3A8511
:10445000EFA03009832584FE0325C4FDEFF0EFFCB7
:104460008327C4FD03C7570083C66700A206558F84
:1044700083C67700C206558F83C78700E207D98FAE
:104480003E868327C4FD03C7970083C6A700A20604
:10449000558F83C6B700C206558F83C7C700E20792
:1044A000D98F8607B306F600832784FE8607032785
:1044B00084FDB305F700032744FD832784FEB3077B
:1044C000F74086073E863685EFA0B001032744FDFE
:1044D000832784FEB307F740BE850325C4FDEFF0B4
:1044E000CFF4B9A48327C4FD03C7570083C6670070
:1044F000A206558F83C67700C206558F83C78700F3
:10450000E207D98F3E868327C4FD03C7970083C681
:10451000A700A206558F83C6B700C206558F83C772
:10452000C700E207D98F8A073307F600832784FE86
:104530008A073E86832584FD3A85EFA0807A83250D
:1045400084FE0325C4FDEFF04FEE8327C4FD03C7AF
:10455000570083C66700A206558F83C67700C20640
:10456000558F83C78700E207D98F3E868327C4FD16
:1045700003C7970083C6A700A206558F83C6B7005E
:10458000C206558F83C7C700E207D98F8A07B306D3
:10459000F600832784FE8A07032784FDB305F7000E
:1045A000032744FD832784FEB307F7408A073E862E
:1045B0003685EFA00073032744FD832784FEB307ED
:1045C000F740BE850325C4FDEFF02FE601008DA264
:1045D0008327C4FD03C7170083C62700A206558F93
:1045E00083C63700C206558F83C74700E207D98FBD
:1045F00005476387E70689C709476387E70C0DAA64
:104600008327C4FD03C7570083C66700A206558FE2
:1046100083C67700C206558F83C78700E207D98F0C
:104620003E868327C4FD03C7970083C6A700A20662
:10463000558F83C6B700C206558F83C7C700E207F0
:10464000D98FB297032644FD832584FD3E85EFA0D4
:104650004069832544FD0325C4FDEFF00FDDC9A8A3
:104660008327C4FD03C7570083C66700A206558F82
:1046700083C67700C206558F83C78700E207D98FAC
:104680003E868327C4FD03C7970083C6A700A20602
:10469000558F83C6B700C206558F83C7C700E20790
:1046A000D98F86073307F600832744FD86073E86A9
:1046B000832584FD3A85EFA0C062832544FD032550
:1046C000C4FDEFF08FD6ADA08327C4FD03C757000C
:1046D00083C66700A206558F83C67700C206558F32
:1046E00083C78700E207D98F3E868327C4FD03C7AF
:1046F000970083C6A700A206558F83C6B700C206DF
:10470000558F83C7C700E207D98F8A073307F600A2
:10471000832744FD8A073E86832584FD3A85EFA0E2
:10472000405C832544FD0325C4FDEFF00FD001005C
:104730008327C4FD03C7170183C62701A206558F2F
:1047400083C63701C206558F83C74701E207D98F59
:104750003E87832744FD1D8F8327C4FD9375F70F84
:1047600083C61701818A3686AE86D18EA388D7008C
:104770009356870093F5F60F83C62701818A368604
:10478000AE86D18E2389D7009356070193F5F60F95
:1047900083C63701818A3686AE86D18EA389D7003B
:1047A0001356870103C74701018BBA863287558F9D
:1047B000238AE70021A095472326F4FE8327C4FD22
:1047C00083C70700ED9B13F7F70F8327C4FD2380F2
:1047D000E7008327C4FE3E85B250225445618280A3
:1047E000797106D622D40018232EA4FC232CB4FC05
:1047F000232AC4FC2328D4FC8327C4FDB337F0004C
:1048000093F7F70F3E8713061016C96793858762E3
:104810003A85EFF0CFA6832744FDB337F00093F736
:10482000F70F3E8713062016C967938587623A857E
:10483000EFF0EFA4232604FE232404FE232204FE2B
:10484000832784FD89E78D472326F4FEA9A18327CA
:10485000C4FD83C707008D8B93F7F70F91CB832798
:1048600044FD032744FE98C399472326F4FE21A361
:104870000325C4FDEFF09F902322A4FE832744FD6F
:104880009C43032744FE6379F702832744FD0327F3
:1048900044FE98C39D472326F4FE832744FE89EFF8
:1048A0008327C4FD83C70700DD9B13F7F70F83271A
:1048B000C4FD2380E700C1A18327C4FD83C707008F
:1048C00093E7870013F7F70F8327C4FD2380E700E2
:1048D0008327C4FD03C7570183C66701A206558F0E
:1048E00083C67701C206558F83C78701E207D98F38
:1048F0003E868327C4FD03C7D70083C6E700A20610
:10490000558F83C6F700C206558F83C70701E2079C
:10491000D98FB307F6402324F4FE832744FD9C433C
:10492000032784FE6366F7148327C4FD03C71700BB
:1049300083C62700A206558F83C63700C206558F4F
:1049400083C74700E207D98F05476384E70689C715
:104950000947638FE70A2DA68327C4FD03C75700C5
:1049600083C66700A206558F83C67700C206558F9F
:1049700083C78700E207D98F3E868327C4FD03C71C
:10498000D70083C6E700A206558F83C6F700C2068C
:10499000558F83C70701E207D98F3307F6008327B6
:1049A00044FD9C433E86BA85032584FDEFA0603319
:1049B000C1AC8327C4FD03C7570083C66700A206A6
:1049C000558F83C67700C206558F83C78700E207DD
:1049D000D98F3E868327C4FD03C7D70083C6E7006F
:1049E000A206558F83C6F700C206558F83C70701FD
:1049F000E207D98F86073307F600832744FD9C43DF
:104A000086073E86BA85032584FDEFA0802D8DACF8
:104A10008327C4FD03C7570083C66700A206558FCE
:104A200083C67700C206558F83C78700E207D98FF8
:104A30003E868327C4FD03C7D70083C6E700A206CE
:104A4000558F83C6F700C206558F83C70701E2075B
:104A5000D98F8A073307F600832744FD9C438A07D2
:104A60003E86BA85032584FDEFA0A027010009AC8E
:104A70008327C4FD03C7170083C62700A206558FEE
:104A800083C63700C206558F83C74700E207D98F18
:104A900005476383E70A89C709476381E714CDA205
:104AA0008327C4FD03C7570083C66700A206558F3E
:104AB00083C67700C206558F83C78700E207D98F68
:104AC0003E868327C4FD03C7D70083C6E700A2063E
:104AD000558F83C6F700C206558F83C70701E207CB
:104AE000D98FB297032684FEBE85032584FDEFA0EF
:104AF000401F032784FD832784FE3305F7008327A7
:104B0000C4FD03C7570083C66700A206558F83C63E
:104B10007700C206558F83C78700E207D98FBE860C
:104B2000832744FD9843832784FEB307F7403E86DE
:104B3000B685EFA0001BA9A28327C4FD03C75700B9
:104B400083C66700A206558F83C67700C206558FBD
:104B500083C78700E207D98F3E868327C4FD03C73A
:104B6000D70083C6E700A206558F83C6F700C206AA
:104B7000558F83C70701E207D98F86073307F600F1
:104B8000832784FE86073E86BA85032584FDEFA031
:104B90004015832784FE8607032784FD3305F7002D
:104BA0008327C4FD03C7570083C66700A206558F3D
:104BB00083C67700C206558F83C78700E207D98F67
:104BC000BE86832744FD9843832784FEB307F740BE
:104BD00086073E86B685EFA0C0105DA08327C4FD82
:104BE00003C7570083C66700A206558F83C67700A8
:104BF000C206558F83C78700E207D98F3E86832779
:104C0000C4FD03C7D70083C6E700A206558F83C63D
:104C1000F700C206558F83C70701E207D98F8A07BD
:104C20003307F600832784FE8A073E86BA8503256C
:104C300084FDEFA0000B832784FE8A07032784FDF1
:104C40003305F7008327C4FD03C7570083C66700F9
:104C5000A206558F83C67700C206558F83C787008B
:104C6000E207D98FBE86832744FD9843832784FEBD
:104C7000B307F7408A073E86B685EFA0800601009D
:104C80008327C4FD83C70700DD9B13F7F70F832736
:104C9000C4FD2380E700832704FDF1EF8327C4FDD3
:104CA00003C70700AD476316F70089472326F4FEC4
:104CB000D9A08327C4FD83C7070093E7270013F714
:104CC000F70F8327C4FD2380E700832744FD9C431F
:104CD000BE850325C4FDEFF08F8D8327C4FD03C778
:104CE000170183C62701A206558F83C63701C20666
:104CF000558F83C74701E207D98F3E87832744FD3D
:104D00009C433E978327C4FD9375F70F83C6170115
:104D1000818A3686AE86D18EA388D70093568700C7
:104D200093F5F60F83C62701818A3686AE86D18E2B
:104D30002389D7009356070193F5F60F83C63701F1
:104D4000818A3686AE86D18EA389D7001356870115
:104D500003C74701018BBA863287558F238AE70044
:104D60008327C4FD83C70700F59B13F7F70F83273D
:104D7000C4FD2380E7008327C4FE3E85B250225441
:104D800045618280797106D622D40018232EA4FCB6
:104D9000232CB4FC232AC4FC2328D4FC8327C4FD81
:104DA000B337F00093F7F70F3E8713062022C96749
:104DB000938587623A85EFE09FCC232604FE832704
:104DC000C4FD032744FD1376F70F03C75700018B7B
:104DD000BA863287558FA382E700032744FD2183DB
:104DE0001376F70F03C76700018BBA863287558F9A
:104DF0002383E700032744FD41831376F70F03C79E
:104E00007700018BBA863287558FA383E70003278B
:104E100044FD1356870103C78700018BBA8632878A
:104E2000558F2384E7008327C4FD23800700832751
:104E3000C4FD032784FD1376F70F03C71700018B0A
:104E4000BA863287558FA380E700032784FD21832C
:104E50001376F70F03C72700018BBA863287558F69
:104E60002381E700032784FD41831376F70F03C7EF
:104E70003700018BBA863287558FA381E70003275D
:104E800084FD1356870103C74700018BBA8632871A
:104E9000558F2382E7008327C4FD03C79700018B4A
:104EA000A384E70003C7A700018B2385E70003C79E
:104EB000B700018BA385E70003C7C700018B2386DA
:104EC000E7008327C4FD03C7D700018BA386E70053
:104ED00003C7E700018B2387E70003C7F700018BB7
:104EE000A387E70003C70701018B2388E700832717
:104EF000C4FD032704FD1376F70F03C71701018BC9
:104F0000BA863287558FA388E700032704FD2183E3
:104F10001376F70F03C72701018BBA863287558FA7
:104F20002389E700032704FD41831376F70F03C7A6
:104F30003701018BBA863287558FA389E700032793
:104F400004FD1356870103C74701018BBA863287D8
:104F5000558F238AE7008327C4FD032704FD1376BA
:104F6000F70F03C75701018BBA863287558FA38A83
:104F7000E700032704FD21831376F70F03C76701BA
:104F8000018BBA863287558F238BE700032704FDF8
:104F900041831376F70F03C77701018BBA863287F7
:104FA000558FA38BE700032704FD1356870103C722
:104FB0008701018BBA863287558F238CE7008327C0
:104FC000C4FE3E85B250225445618280397106DEAE
:104FD00022DC80002326A4FC2324B4FC8327C4FC09
:104FE000B337F00093F7F70F3E8713060008C96741
:104FF000938507683A85EFE09FA8A30704FE232462
:1050000004FE8327C4FCE1CB832784FC63D307021F
:105010008327C4FC138717002326E4FC1307D00260
:105020002380E700832784FCB307F0402324F4FCAB
:10503000B9A8832784FCA1EF8327C4FC13070003CE
:105040002380E70051A8032784FCA947B367F70230
:105050002324F4FE832784FE13D7F741832784FE9D
:10506000B98F998F0347F4FE93061700A307D4FE68
:10507000BA8613F7F70F930704FFB6972384E7FE6A
:10508000032784FCA947B347F7022324F4FC8327B2
:1050900084FCD5FB2DA88347F4FEFD17130704FFFE
:1050A000BA9783C787FE9387070393F6F70F832783
:1050B000C4FC138717002326E4FC1397860161873D
:1050C0002380E7008347F4FEFD17A307F4FE834720
:1050D000F4FEF1F311A001000100F25062542161CD
:1050E0008280397106DE22DC80002326A4FC232482
:1050F000B4FC8327C4FCB337F00093F7F70F3E8767
:105100001306C00CC967938507683A85EFE03F979F
:10511000A30704FE8327C4FCD9CB832784FCB1E317
:105120008327C4FC130700032380E70051A0032753
:1051300084FCA947B376F7028347F4FE1387170070
:10514000A307E4FE139786016187930604FFB697D1
:105150002386E7FE032784FCA947B357F7022324DD
:10516000F4FC832784FCE1F73DA88347F4FEFD1798
:10517000130704FFBA978387C7FE93F7F70F938748
:10518000070393F6F70F8327C4FC13871700232622
:10519000E4FC1397860161872380E7008347F4FED0
:1051A000FD17A307F4FE8347F4FEE1F311A001000D
:1051B0000100F250625421618280411122C6000830
:1051C00099679387870873900780010032444101F3
:1051D0008280411122C60008996773900780010000
:1051E000324441018280011122CE00102326A4FE08
:1051F0008327C4FEFD8B0547B316F70037E700E0B1
:105200008327C4FE9583938707048A07BA9794C3BC
:105210000100724405618280011122CE0010232614
:10522000A4FE8327C4FEFD8B0547B316F70037E7BE
:1052300000E08327C4FE9583938707068A07BA9701
:1052400094C30100724405618280011122CE0010D6
:105250002326A4FEAE87A305F4FE37E700E08327EC
:10526000C4FEBA970347B4FE2380E74001007244AE
:1052700005618280011106CE22CC00102326A4FEF7
:105280000325C4FEEFF03FF60100F24062440561E1
:105290008280011106CE22CC00102326A4FE032515
:1052A000C4FEEFF07FF70100F240624405618280A6
:1052B000011106CE22CC00102326A4FEAE87A30542
:1052C000F4FE8347B4FEBE850325C4FEEFF0FFF76E
:1052D0000100F240624405618280011106CE22CCB9
:1052E00000102326A4FE8327C4FE99C783A7418804
:1052F0001387F7FF23A2E18883A7418899E3EFF0A2
:10530000DFEB0100F240624405618280411106C674
:1053100022C4000883A7418899E3EFF09FEB83A79D
:1053200041881387170023A2E18883A741883E851F
:10533000B240224441018280411106C622C40008C5
:105340000145EFF09FF90100B24022444101828003
:10535000357106CF16CD1ACB1EC922C72AC52EC35A
:1053600032C1B6DEBADCBEDAC2D8C6D6F2D4F6D2C4
:10537000FAD0FECE82E686E48AE28EE012FE16FCC9
:105380001AFA1EF82AF62EF432F236F03AEE3EEC15
:1053900042EA46E872E676E47AE27EE0001193059E
:1053A0005052B747014013850780EF308075AA87B8
:1053B00089CB93055052B747014013850780EF30E2
:1053C00070040100FA40EA425A43CA433A442A456B
:1053D0009A450A46F6566657D6574658B658265E38
:1053E000965E065FF64F3660A66016618661727241
:1053F000E2725273C2733275A27512768276726748
:10540000E2675268C268326EA26E126F826F0D61DF
:1054100073002030357106CF16CD1ACB1EC922C7B6
:105420002AC52EC332C1B6DEBADCBEDAC2D8C6D6B1
:10543000F2D4F6D2FAD0FECE82E686E48AE28EE09C
:1054400012FE16FC1AFA1EF82AF62EF432F236F084
:105450003AEE3EEC42EA46E872E676E47AE27EE034
:10546000001193055052B747004013850740EF30B5
:105470004069AA8789CB93055052B74700401385EE
:105480000740EF3020780100FA40EA425A43CA430D
:105490003A442A459A450A46F6566657D65746581C
:1054A000B658265E965E065FF64F3660A6601661B9
:1054B00086617272E2725273C2733275A27512768D
:1054C00082767267E2675268C268326EA26E126FAD
:1054D000826F0D6173002030357106CF16CD1ACB67
:1054E0001EC922C72AC52EC332C1B6DEBADCBEDA57
:1054F000C2D8C6D6F2D4F6D2FAD0FECE82E686E480
:105500008AE28EE012FE16FC1AFA1EF82AF62EF433
:1055100032F236F03AEE3EEC42EA46E872E676E4E3
:105520007AE27EE0001193055052B7570040138590
:105530000780EF30005DAA8789CB93055052B7579B
:10554000004013850780EF30E06B0100FA40EA422B
:105550005A43CA433A442A459A450A46F65666577C
:10556000D6574658B658265E965E065FF64F3660AA
:10557000A660166186617272E2725273C2733275EE
:10558000A275127682767267E2675268C268326EDE
:10559000A26E126F826F0D6173002030357106CFDD
:1055A00016CD1ACB1EC922C72AC52EC332C1B6DEFC
:1055B000BADCBEDAC2D8C6D6F2D4F6D2FAD0FECE63
:1055C00082E686E48AE28EE012FE16FC1AFA1EF8E3
:1055D0002AF62EF432F236F03AEE3EEC42EA46E893
:1055E00072E676E47AE27EE0001193055052B757F6
:1055F0000040138507C0EF30C050AA8789CB9305C0
:105600005052B7570040138507C0EF30A05F01002C
:10561000FA40EA425A43CA433A442A459A450A465E
:10562000F6566657D6574658B658265E965E065FBB
:10563000F64F3660A660166186617272E27252732E
:10564000C2733275A275127682767267E26752680B
:10565000C268326EA26E126F826F0D6173002030CD
:10566000357106CF16CD1ACB1EC922C72AC52EC347
:1056700032C1B6DEBADCBEDAC2D8C6D6F2D4F6D2B1
:10568000FAD0FECE82E686E48AE28EE012FE16FCB6
:105690001AFA1EF82AF62EF432F236F03AEE3EEC02
:1056A00042EA46E872E676E47AE27EE0001193058B
:1056B000505237550040EF30C044AA8791CB83A7A2
:1056C000418182979305505237550040EF30805307
:1056D0000100FA40EA425A43CA433A442A459A45ED
:1056E0000A46F6566657D6574658B658265E965E10
:1056F000065FF64F3660A660166186617272E272CE
:105700005273C2733275A275127682767267E2673F
:105710005268C268326EA26E126F826F0D617300A2
:105720002030357106CF16CD1ACB1EC922C72AC527
:105730002EC332C1B6DEBADCBEDAC2D8C6D6F2D4C7
:10574000F6D2FAD0FECE82E686E48AE28EE012FE3F
:1057500016FC1AFA1EF82AF62EF432F236F03AEE59
:105760003EEC42EA46E872E676E47AE27EE0001138
:1057700093055052B727004013850780EF306038FB
:10578000AA8789CB93055052B7270040138507801D
:10579000EF3040470100FA40EA425A43CA433A44D4
:1057A0002A459A450A46F6566657D6574658B65879
:1057B000265E965E065FF64F3660A66016618661CD
:1057C0007272E2725273C2733275A2751276827669
:1057D0007267E2675268C268326EA26E126F826FA1
:1057E0000D6173002030357106CF16CD1ACB1EC95E
:1057F00022C72AC52EC332C1B6DEBADCBEDAC2D891
:10580000C6D6F2D4F6D2FAD0FECE82E686E48AE29A
:105810008EE012FE16FC1AFA1EF82AF62EF432F268
:1058200036F03AEE3EEC42EA46E872E676E47AE298
:105830007EE0001193055052B7270040138507C042
:10584000EF30202CAA8781CF83A7C181829793054F
:105850005052B7270040138507C0EF30A03A01002F
:10586000FA40EA425A43CA433A442A459A450A460C
:10587000F6566657D6574658B658265E965E065F69
:10588000F64F3660A660166186617272E2725273DC
:10589000C2733275A275127682767267E2675268B9
:1058A000C268326EA26E126F826F0D61730020307B
:1058B000357106CF16CD1ACB1EC922C72AC52EC3F5
:1058C00032C1B6DEBADCBEDAC2D8C6D6F2D4F6D25F
:1058D000FAD0FECE82E686E48AE28EE012FE16FC64
:1058E0001AFA1EF82AF62EF432F236F03AEE3EECB0
:1058F00042EA46E872E676E47AE27EE00011930539
:10590000505237250040EF30C01FAA8789CBEFC027
:105910003F8A9305505237250040EF30A02E0100FA
:10592000FA40EA425A43CA433A442A459A450A464B
:10593000F6566657D6574658B658265E965E065FA8
:10594000F64F3660A660166186617272E27252731B
:10595000C2733275A275127682767267E2675268F8
:10596000C268326EA26E126F826F0D6173002030BA
:10597000357106CF16CD1ACB1EC922C72AC52EC334
:1059800032C1B6DEBADCBEDAC2D8C6D6F2D4F6D29E
:10599000FAD0FECE82E686E48AE28EE012FE16FCA3
:1059A0001AFA1EF82AF62EF432F236F03AEE3EECEF
:1059B00042EA46E872E676E47AE27EE00011B70752
:1059C000055083C7070193F7F70F918B8DC383A70A
:1059D00081818297B707055083C7070113F7F70F37
:1059E000B70705506D9B1377F70F2388E700010079
:1059F000FA40EA425A43CA433A442A459A450A467B
:105A0000F6566657D6574658B658265E965E065FD7
:105A1000F64F3660A660166186617272E27252734A
:105A2000C2733275A275127682767267E267526827
:105A3000C268326EA26E126F826F0D6173002030E9
:105A4000357106CF16CD1ACB1EC922C72AC52EC363
:105A500032C1B6DEBADCBEDAC2D8C6D6F2D4F6D2CD
:105A6000FAD0FECE82E686E48AE28EE012FE16FCD2
:105A70001AFA1EF82AF62EF432F236F03AEE3EEC1E
:105A800042EA46E872E676E47AE27EE000110545F5
:105A9000EF1080562A8785476315F7000545EF10FC
:105AA000005B0100FA40EA425A43CA433A442A459D
:105AB0009A450A46F6566657D6574658B658265E51
:105AC000965E065FF64F3660A6601661866172725A
:105AD000E2725273C2733275A27512768276726761
