:100000006F60102A130000001300000013000000AE
:100010001300000013000000130000001300000094
:100020001300000013000000130000001300000084
:08003000130000007300100032
:100038000000000000000000E2670000F267000016
:1000480000000000E6690000000000000000000059
:10005800E8690000EA6900000000000000000000F4
:10006800EC69000000000000EE69000000000000DC
:10007800F0690000F2690000F4690000F669000008
:10008800F8690000FA690000A45A0000585B0000F3
:100098000C5C0000C05C0000745D0000066A000093
:1000A800086A00000A6A00000C6A00000E6A000074
:1000B800106A0000126A0000146A0000166A000044
:1000C800186A00001A6A00001C6A0000285E000016
:1000D800206A000072600000246A0000266A00009E
:1000E80032610000F2610000B26200002E6A000076
:1000F800306A0000326A0000346A0000366A000084
:10010800386A0000B4530000785400003C550000E1
:10011800405F0000426A0000446A0000466A00002E
:10012800AA6500004A6A00004C6A00004E6A000096
:10013800506A0000526A000072630000566A0000AC
:1001480000560000C456000032640000EA64000053
:10015800606A0000626A0000646A0000666A000063
:10016800686A00006A6A00006C6A00006E6A000033
:10017800706A0000726A0000746A0000168E00003F
:10018800786A00007A6A0000D45900008657000097
:100198004A58000014590000846A00006A6600008A
:1001A800886A00008A6A00008C6A00002A670000DA
:1001B800906A0000926A0000946A0000966A000043
:1001C800986A00009A6A00009C6A00009E6A000013
:1001D8000000000000000000000000000000000017
:1001E8000000000000000000000000000000000007
:0801F8000000000000000000FF
:100200003D432A876373C3029377F700BDEFADE5E3
:10021000937606FF3D8ABA960CC34CC30CC74CC7F5
:100220004107E36BD7FE11E28280B306C3408A0622
:100230009702000096966780A6002307B700A306E2
:10024000B7002306B700A305B7002305B700A30432
:10025000B7002304B700A303B7002303B700A3022A
:10026000B7002302B700A301B7002301B700A30022
:10027000B7002300B700828093F5F50F93968500B1
:10028000D58D93960501D58D61B79396270097027A
:10029000000096968682E78086FA9680C1171D8FA9
:1002A0003E96E374C3F8A5B7797106D622D4001838
:1002B000232EA4FC8327C4FDB18393F7F70FBD8BD6
:1002C000A307F4FE8327C4FDA18393F7F70FBD8B2B
:1002D0002307F4FE0347F4FEB70700200A079387BD
:1002E0008727BA979C430347E4FE91460546BA85A3
:1002F0003E85EF60D02B0347F4FEB70700200A07C6
:1003000093878727BA979C4385453E85EF60F02504
:1003100001000347F4FEB70700200A0793878727E9
:10032000BA979C4389453E85EF60F04CAA87F5D388
:100330000347F4FEB70700200A0793878727BA9779
:100340009C43FC478346F4FE138701863697034798
:100350000700B3D7E700C207C1833E85B2502254DD
:1003600045618280797106D622D40018232EA4FC20
:10037000AE87A30DF4FC0347B4FD13060005D16757
:10038000938507B83A85EF30C075232404FEA30790
:1003900004FE05A00325C4FD013FAA873E878327ED
:1003A00084FEBA972324F4FE8347F4FE8507A3074F
:1003B000F4FE0347F4FE8347B4FDE36DF7FC834787
:1003C000B4FD032784FEB357F7022324F4FE8327EA
:1003D00084FEC207C1833E85B250225445618280AB
:1003E0005D7186C6A2C48008232EA4FA232CB4FA19
:1003F000232604FC232804FC232A04FC232C04FCCD
:10040000232E04FC232004FE232204FE232404FEC6
:100410008327C4FBB18393F7F70FBD8BA307F4FECB
:100420008327C4FB93F7F70F8146014681453E853C
:10043000412C8347F4FE99E7854513050020EF70B2
:10044000004619A80347F4FE85476317F700854562
:1004500013050040EF70A0443165EF70801303472F
:10046000F4FEB70700200A0793878727BA979C43B3
:100470003E85EF60406B232604FC232804FC232ADE
:1004800004FCB7070E00232CF4FC232E04FC854744
:100490002300F4FE0347F4FEB70700200A07938702
:1004A0008727BA979C431307C4FCBA853E85EF6043
:1004B000806D0347F4FEB70700200A07938787275C
:1004C000BA979C4385453E85EF60007C0347F4FE68
:1004D000B70700200A0793878727BA979C4381456F
:1004E0003E85EF60F0340347F4FEB70700200A07AB
:1004F00093878727BA979C433E85EF60C07C0100B5
:100500000347F4FEB70700200A0793878727BA97A7
:100510009C433E85EF60407DAA87FDF30347F4FED0
:10052000B70700200A0793878727BA979C433E8521
:10053000EF60807E01000347F4FEB70700200A0742
:1005400093878727BA979C433E85EF60007FAA87F1
:10055000FDF38346F4FE832784FB13F7F70F93879D
:100560000186B6972380E7000100B640264461610A
:100570008280011122CE00102326A4FE37F500E070
:100580008328450037F500E093F8E8FF23221501A2
:1005900083A841820965130505F433D5A802AA860C
:1005A00001470325C4FEAA87014837F500E033035D
:1005B000F702B308D8029A983383F60233B6F602EC
:1005C0009A85B387C8003E860CC950C9B7F700E0CA
:1005D0009843B7F700E01367070198C3B7F700E047
:1005E0009843B7F700E01367170298C30100B7F705
:1005F00000E0DC4313F717008547E31AF7FEB7F76F
:1006000000E09843B7F700E0799B98C3010072447B
:1006100005618280011122CE00102326A4FE8327CB
:10062000C4FE958313F77700B70700200A07938766
:100630000704BA979C439C470327C4FE7D8B8546DD
:100640003397E600F98FB337F00093F7F70F3E8545
:10065000724405618280797122D60018232EA4FC91
:100660008327C4FD958393F7F70F9D8BA307F4FEB3
:100670008327C4FD93F7F70FFD8B2307F4FE034791
:10068000F4FEB70700200A0793870704BA979C4334
:10069000D8478347E4FE8546B397F600C207C18377
:1006A0003E868346F4FEB70700208A069387070438
:1006B000B6979C43318FD8C7010032544561828080
:1006C000797106D622D40018232EA4FC232CB4FC66
:1006D000B2872328D4FCA30BF4FC232004FE23229E
:1006E00004FE232404FE8327C4FD958393F7F70FAC
:1006F0009D8BA307F4FE8327C4FD93F7F70FFD8BB3
:100700002307F4FE8347F4FE91E785451145EF701A
:10071000001991A80347F4FE85476317F700854544
:100720002145EF70C01781A00347F4FE8947631786
:10073000F70085454145EF70801635A00347F4FE6C
:100740008D476318F700854513050002EF702015EB
:1007500019A80347F4FE91476317F7008545130571
:100760000004EF70C0138347E4FE0547B317F7009A
:10077000C207C1832310F4FE032784FD8547631756
:10078000F702832704FDC207C183A183C207C18387
:1007900089E78D472322F4FE11A8832704FDC207B1
:1007A000C183A183C207C1832322F4FE832704FDF2
:1007B000C207C18393F7F70F2324F4FE0347F4FE27
:1007C000B70700200A0793870704BA979C431307CB
:1007D00004FEBA853E85EF605011032784FD8547EE
:1007E0006319F7020347F4FEB70700200A0793874F
:1007F0000704BA9794438347E4FE0547B317F7000D
:10080000C207C183034774FD3A86BE853685EF6013
:1008100050380100B250225445618280797106D669
:1008200022D40018232EA4FC232CB4FC032784FD1F
:10083000896793871771B337F70093F7F70F3E87F0
:1008400013065003D167938587BD3A85EF30602941
:10085000B7370140938707C02326F4FE8327C4FDE2
:10086000C183BD8B2547636EF70613972700D167B9
:1008700093874713BA979C438287B7370140938782
:1008800007C02326F4FEB1A8B70700402326F4FED4
:1008900089A8B7070040938707402326F4FE91A05C
:1008A000B7170040938707802326F4FE1DA8B717CB
:1008B0000040938707C02326F4FE25A0B7370140E8
:1008C000938707402326F4FE29A8B7570140938752
:1008D00007C02326F4FE31A0B75701402326F4FEBB
:1008E00001008327C4FE83D7C7022315F4FE0357F4
:1008F000A4FE832784FD3307F70289679387077176
:10090000B357F7022314F4FE8327C4FDA1838D8B14
:1009100081EB8327C4FE035784FE239AE702A9A82C
:100920008327C4FDA18313F7370085476319F700B8
:100930008327C4FE035784FE239CE70235A8832740
:10094000C4FDA18313F7370089476319F700832794
:10095000C4FE035784FE239EE70239A88327C4FD03
:10096000A18313F737008D476318F7008327C4FE70
:10097000035784FE2390E7040100B25022544561DE
:100980008280797122D60018232EA4FC232CB4FC7B
:10099000232AC4FC231504FE231404FE03A741826A
:1009A000832784FDB357F702C1832314F4FE03A702
:1009B0004182835784FE8507BE86832784FDB387E3
:1009C000F602B357F7022315F4FEB73701409387B9
:1009D00007C02326F4FE8327C4FDC183BD8B2547B2
:1009E000636EF70613972700D1679387C715BA97E9
:1009F0009C438287B7370140938707C02326F4FEC4
:100A0000B1A8B70700402326F4FE89A8B707004025
:100A1000938707402326F4FE91A0B71700409387E1
:100A200007802326F4FE1DA8B7170040938707C050
:100A30002326F4FE25A0B7370140938707402326DD
:100A4000F4FE29A8B7570140938707C02326F4FE78
:100A500031A0B75701402326F4FE01008357A4FEBE
:100A6000FD171397070141838327C4FE2396E702EE
:100A70008327C4FE035784FE2394E7020357A4FE92
:100A8000832744FD3307F702896793870771B357BC
:100A9000F7022313F4FE8327C4FDA1838D8B81EB22
:100AA0008327C4FE035764FE239AE702A9A883277D
:100AB000C4FDA18313F7370085476319F700832727
:100AC000C4FE035764FE239CE70235A88327C4FDB8
:100AD000A18313F7370089476319F7008327C4FE02
:100AE000035764FE239EE70239A88327C4FDA18330
:100AF00013F737008D476318F7008327C4FE0357A9
:100B000064FE2390E70401003254456182805D71E8
:100B100086C6A2C48008232EA4FA232CB4FA232A62
:100B2000C4FA8327C4FBC1838D453E85EF00B00A1C
:100B3000AA873E871306D00AD167938587BD3A8579
:100B4000EF20307A032744FB896793871771B33707
:100B5000F70093F7F70F3E871306F00AD1679385E6
:100B600087BD3A85EF20F077232E04FC232004FE76
:100B7000231204FE232604FC232804FC232A04FC5D
:100B8000232C04FC231504FE8327C4FBC183BD8BE7
:100B90003E85EF00B00A8327C4FB93F7F70F930657
:100BA0008031014685453E85213E85450545EF60FE
:100BB000104FB7370140938707C02326F4FE8327E1
:100BC000C4FBC183BD8B2547636EF70613972700CF
:100BD000D16793874718BA979C438287B7370140FC
:100BE000938707C02326F4FEB1A8B7070040232649
:100BF000F4FE89A8B7070040938707402326F4FE38
:100C000091A0B7170040938707802326F4FE1DA804
:100C1000B7170040938707C02326F4FE25A0B737F7
:100C20000140938707402326F4FE29A8B7570140C7
:100C3000938707C02326F4FE31A0B757014023262F
:100C4000F4FE01008327C4FB13D7C7008D47631A46
:100C5000F7008545B70716001385070CEF60E076AF
:100C600015AA8327C4FB13D7C700C547631AF7002B
:100C70008545B707180013850710EF60007519AA9E
:100C80008327C4FB13D7C700C947631AF7008545FC
:100C9000B707180013850720EF602073E5A88327A6
:100CA000C4FB13D7C700CD47631AF7008545B707C4
:100CB000180013850730EF604071E9A88327C4FB53
:100CC00013D7C70093072002631AF7008545B717AB
:100CD0001A0013850780EF60406F6DA88327C4FB5F
:100CE00013D7C70093073002631AF7008545B7177B
:100CF0001A00138507C0EF60406D69A88327C4FB05
:100D000013D7C700930710036317F70085450565E0
:100D1000EF60A06B41A08327C4FB13D7C7009307E4
:100D20001007631AF7008545B70700801385470051
:100D3000EF60A06985A08327C4FB13D7C700930782
:100D40003008631AF7008545B7071380138507013C
:100D5000EF60A06781A08327C4FB13D7C700930768
:100D60001009631AF7008545B70715801385070238
:100D7000EF60A06505A08327C4FB13D7C7009307C6
:100D800030096319F7008545B707158013850704F7
:100D9000EF60A06303A74182832784FBB357F70268
:100DA000C1832315F4FE03A741828357A4FE850760
:100DB000BE86832784FBB387F602B357F70223145A
:100DC000F4FE035784FE832744FB3307F702896749
:100DD00093870771B357F7022313F4FE835784FEFA
:100DE000FD17C207C1832310F4FE8357A4FE231E00
:100DF000F4FC231104FE231F04FC230204FE9307CA
:100E0000C4FDBE850325C4FEEF607057930700073D
:100E10002316F4FC85472317F4FC231804FC83579E
:100E200064FE2319F4FC8947231AF4FC8947231B29
:100E3000F4FC231C04FC231D04FC8327C4FBA183B6
:100E40008D8B9DE39307C4FCBE850325C4FEEF6034
:100E5000F06AA1450325C4FEEF70C06291450325E9
:100E6000C4FEEF70E07645A08327C4FBA18313F78F
:100E7000370085476315F7029307C4FCBE85032539
:100E8000C4FEEF706001A1450325C4FEEF7040640D
:100E9000930500400325C4FEEF704078ADA0832782
:100EA000C4FBA18313F7370089476314F702930744
:100EB000C4FCBE850325C4FEEF70201CA14503259C
:100EC000C4FEEF70806691450325C4FEEF70607A22
:100ED0001DA88327C4FBA18313F737008D47631434
:100EE000F7029307C4FCBE850325C4FEEF70A0364D
:100EF000A1450325C4FEEF7000689305004003255B
:100F0000C4FEEF70C07B85450325C4FEEF708051A1
:100F100085450325C4FEEF70604B0100B6402644B2
:100F200061618280011122CE00102326A4FEAE87CB
:100F3000A305F4FED1670327C4FE0A079387C71AE7
:100F4000BA979C433E878347B4FEC207C1832316EA
:100F5000F7000100D1670327C4FE0A079387C71A69
:100F6000BA979C4383D78700C207C18393F70708CA
:100F7000F5F30100724405618280011122CE001058
:100F80002326A4FEAE872315F4FE8357A4FEA18377
:100F9000C207C18393F6F70FD1670327C4FE0A0780
:100FA0009387C71ABA979C433E8793970601C183DC
:100FB0002316F7000100D1670327C4FE0A079387B1
:100FC000C71ABA979C4383D78700C207C183898B0E
:100FD000FDD38357A4FE93F6F70FD1670327C4FE12
:100FE0000A079387C71ABA979C433E8793970601CF
:100FF000C1832316F7000100D1670327C4FE0A0747
:101000009387C71ABA979C4383D78700C207C183C7
:1010100093F70708F5F3010072440561828001111E
:1010200022CE00102326A4FE2324B4FE2322C4FED5
:1010300071A8832784FE83D70700A183C207C183D9
:1010400093F6F70FD1670327C4FE0A079387C71AE1
:10105000BA979C433E8793970601C1832316F700F6
:101060000100D1670327C4FE0A079387C71ABA97FE
:101070009C4383D78700C207C183898BFDD3832715
:1010800084FE138727002324E4FE83D7070093F60A
:10109000F70FD1670327C4FE0A079387C71ABA97C9
:1010A0009C433E8793970601C1832316F7000100F6
:1010B000D1670327C4FE0A079387C71ABA979C43D0
:1010C00083D78700C207C183898BFDD3832744FE62
:1010D0001387F7FF2322E4FEA9FF0100D16703274E
:1010E000C4FE0A079387C71ABA979C4383D7870021
:1010F000C207C18393F70708F5F301007244056145
:1011000082805D7186C6A2C480082326A4FC2324A5
:10111000B4FC2322C4FC2320D4FC232EE4FA232C89
:10112000F4FA232A04FBD1670327C4FC0A07938738
:10113000C71ABA979C433E85EF60F0078545054581
:10114000EF60E075032704FC93073012631DF7007E
:101150000327C4FB930750126317F7008545054525
:10116000EF60A02625A0032704FC89679387A714B6
:10117000631EF7000327C4FB89679387C7146317AF
:10118000F700854537152000EF6020248327C4FC35
:1011900091E785450565EF60807025A00327C4FCB5
:1011A00085476317F70085451165EF60A07311A8A7
:1011B0000327C4FC89476316F70085452165EF6066
:1011C0006072832704FC93F7F70F9306803105467E
:1011D00085453E85EFF0CFCE8327C4FB93F7F70F0D
:1011E00093068031054685453E85EFF06FCD032798
:1011F00084FBC167F917630DF700832784FB93F71E
:10120000F70F93068034054681453E85EFF04FCBBE
:10121000032744FB9307F00F630DF700832744FB7C
:1012200093F7F70F93060031014685453E85EFF0B1
:101230002FC9232E04FC232004FE232204FE232492
:1012400004FE231604FE231E04FC93074010231FF4
:10125000F4FC231004FE032784FC85476305F70292
:10126000832784FC81CF032784FC89476303F7022B
:10127000032784FC8D476304F7020DA8231104FEA5
:10128000231204FE25A0231104FE85472312F4FE39
:1012900031A889472311F4FE231204FE01A88947CF
:1012A0002311F4FE85472312F4FE0100231704FEE8
:1012B00003A74182832744FCB357F7022317F4FEA8
:1012C00003A74182832744FCB377F70291E7835752
:1012D000E4FEFD172317F4FE0357E4FE9307F0071F
:1012E00063F7E700930780032317F4FE49A8035729
:1012F000E4FE9307F00363F7E70093070003231767
:10130000F4FEB5A80357E4FEFD4763F7E700930733
:1013100080022317F4FEA5A00357E4FEBD4763F740
:10132000E700930700022317F4FE91A80357E4FE99
:101330009D4763F6E700E1472317F4FE89A00357B2
:10134000E4FE8D4763F6E700C1472317F4FE05A8C6
:101350000357E4FE854763F6E700A1472317F4FE31
:1013600039A88357E4FE81C7231704FE09A8130692
:101370008022D167938507C30145EF20807683578C
:10138000E4FE2314F4FE930700202313F4FE231538
:1013900004FE231604FED1670327C4FC0A079387C3
:1013A000C71ABA979C433E879307C4FDBE853A850A
:1013B000EF60C067D1670327C4FC0A079387C71A89
:1013C000BA979C4385453E85EF60C0750100B640E5
:1013D000264461618280797122D60018232EA4FCF4
:1013E000232CB4FC8547A307F4FE0327C4FD0A079A
:1013F00093870191BA979C4399EB0327C4FD0A0791
:1014000093870191BA97032784FD98C315A00327FA
:10141000C4FD0A0793870191BA979C43032784FD73
:101420006316F7008547A307F4FE19A0A30704FE7F
:101430008347F4FE3E85325445618280011106CE19
:1014400022CC00102326A4FE8327C4FE81EB854511
:10145000856713850780EF6080446DA80327C4FE6D
:1014600085476317F70085450545EF60A0475DA0F8
:101470000327C4FE89476317F70085450945EF60D8
:10148000604649A80327C4FE8D476317F7008545CA
:101490001145EF602045BDA80327C4FE914763179F
:1014A000F70085452145EF60E043ADA00327C4FE6A
:1014B00095476317F70085454145EF60A04299A81D
:1014C0000327C4FE99476318F700854513050002FA
:1014D000EF60404181A00327C4FE9D476317F700DA
:1014E00085450965EF60A03B35A00327C4FEA147F1
:1014F0006318F700854537050800EF60403A19A8E2
:101500000327C4FEA5476317F7008545370510007C
:10151000EF60E0380100F240624405618280797139
:1015200006D622D40018232EA4FCB7370140938797
:1015300007C02326F4FE0327C4FDA54763ECE70894
:101540008327C4FD13972700D1679387871BBA971A
:101550009C438287B7370140938707C02326F4FE58
:1015600095A8B70700402326F4FEADA0B7070040BA
:10157000938707402326F4FEB1A8B717004093874E
:1015800007802326F4FEB9A0B7170040938707C051
:101590002326F4FE81A0B71700402326F4FE1DA8E1
:1015A000B7170040938707402326F4FE25A0B737DE
:1015B0000140938707402326F4FE29A8B75701402E
:1015C000938707C02326F4FE31A0B7570140232696
:1015D000F4FE010085450325C4FEEF60305F010085
:1015E000B250225445618280797122D60018232E90
:1015F000A4FCB7370140938707C02326F4FE2315C8
:1016000004FE0327C4FDA54763ECE7088327C4FD58
:1016100013972700D1679387071EBA979C43828749
:10162000B7370140938707C02326F4FE95A8B70774
:1016300000402326F4FEADA0B70700409387074083
:101640002326F4FEB1A8B71700409387078023260E
:10165000F4FEB9A0B7170040938707C02326F4FE15
:1016600081A0B71700402326F4FE1DA8B71700403D
:10167000938707402326F4FE25A0B73701409387C0
:1016800007402326F4FE29A8B7570140938707C0D7
:101690002326F4FE31A0B75701402326F4FE0100B3
:1016A0000327C4FD0A0793878193BA979843894714
:1016B000631FF7008327C4FE83D7470213970701F0
:1016C00041838D47B357F7022315F4FE39A08327D2
:1016D000C4FE83D747022315F4FE8357A4FE3E853C
:1016E000325445618280797122D60018232EA4FCE1
:1016F000B7370140938707C02326F4FE0327C4FDB4
:10170000A54763ECE7088327C4FD13972700D1673B
:1017100093878720BA979C438287B7370140938786
:1017200007C02326F4FE95A8B70700402326F4FE41
:10173000ADA0B7070040938707402326F4FEB1A869
:10174000B7170040938707802326F4FEB9A0B71788
:101750000040938707C02326F4FE81A0B7170040FE
:101760002326F4FE1DA8B7170040938707402326C1
:10177000F4FE25A0B7370140938707402326F4FEE7
:1017800029A8B7570140938707C02326F4FE31A04C
:10179000B75701402326F4FE01008327C4FE23929D
:1017A00007020100325445618280797106D622D445
:1017B0000018232EA4FC232CB4FC85450325C4FD6E
:1017C0001939AA873E871306200FD167938587C8EA
:1017D0003A85EF2000310327C4FD0A079387019162
:1017E000BA97054798C3B7370140938707C02326A8
:1017F000F4FE0327C4FDA54763ECE7088327C4FD77
:1018000013972700D16793870723BA979C43828752
:10181000B7370140938707C02326F4FE95A8B70782
:1018200000402326F4FEADA0B70700409387074091
:101830002326F4FEB1A8B71700409387078023261C
:10184000F4FEB9A0B7170040938707C02326F4FE23
:1018500081A0B71700402326F4FE1DA8B71700404B
:10186000938707402326F4FE25A0B73701409387CE
:1018700007402326F4FE29A8B7570140938707C0E5
:101880002326F4FE31A0B75701402326F4FE0100C1
:101890000325C4FD65360327C4FD0A07938781939A
:1018A000BA97032784FD98C3232004FE232204FE55
:1018B000231404FE032784FD85476315F702FD57B3
:1018C0002312F4FE03A74182B7470F009387072432
:1018D000B357F702C207C183FD17C207C1832310A4
:1018E000F4FE2DA8032784FD89476314F702FD57F2
:1018F0002312F4FE03A741828567938787BBB35702
:10190000F702C207C183FD17C207C1832310F4FE8B
:1019100031A0FD572312F4FE231004FE231304FE0E
:10192000231104FE230404FE930704FEBE85032551
:10193000C4FEEF60C02485450325C4FEEF60102976
:101940000100B250225445618280011122CE001064
:101950002326A4FEAE87A305F4FE0100D16703276A
:10196000C4FE0A0793878725BA979C4383D707004D
:10197000C207C18393F70708F5D3D1670327C4FED5
:101980000A0793878725BA979C433E878347B4FE0F
:10199000C207C1832312F7000100724405618280EF
:1019A000011106CE22CC00102326A4FE2324B4FE6F
:1019B0002322C4FE832784FEB337F00093F7F70F8A
:1019C0003E8713061004D167938507CE3A85EF2032
:1019D000401129A8832784FE138717002324E4FEDF
:1019E00083C70700BE850325C4FE8537832744FED1
:1019F0001387F7FF2322E4FEF1FF0100F240624467
:101A000005618280011106CE22CC00102326A4FE9F
:101A10002324B4FE832784FEB337F00093F7F70F37
:101A20003E8713060005D167938507CE3A85EF20E0
:101A3000400B39A8832784FE138717002324E4FE74
:101A40008387070093F7F70FBE850325C4FEF53D96
:101A5000832784FE83870700F1FF0100F240624480
:101A600005618280011106CE22CC00102326A4FE3F
:101A7000AE87A305F4FED1670327C4FE0A07938748
:101A80008725BA979C433E878347B4FE3E869305DD
:101A900050523A85EF60307B138701858327C4FE5F
:101AA000BA9783C7070081453E85EF30B00683476C
:101AB000B4FE81CF138701858327C4FEBA9783C7FD
:101AC00007003E85EF30500119A813870185832751
:101AD000C4FEBA9783C707003E85EF30D0010100EE
:101AE000F240624405618280011122CE001023265B
:101AF000A4FE2324B4FED1670327C4FE0A079387FC
:101B00008725BA979C4383D70700C207C18393F701
:101B100007028DC7D1670327C4FE0A07938787256D
:101B2000BA979C4383D74700C207C18313F7F70FC7
:101B3000832784FE2380E700854711A081473E85E7
:101B4000724405618280797106D622D40018232E52
:101B5000A4FC232CB4FC232AC4FC2328D4FC032794
:101B600044FD832704FD3D8F8327C4FDB207F98F11
:101B700093B7170093F7F70F3E871306A00AD167B4
:101B8000938507CE3A85EF10D075832744FD13D790
:101B90008700832704FDA183B307F74093B717009D
:101BA00093F7F70F3E871306B00AD167938507CEE8
:101BB0003A85EF101073832744FD93F7F70FE14642
:101BC000014685453E85EFE0BFAF832704FD93F7CF
:101BD000F70F93068004014681453E85EFE05FAE36
:101BE00085450545EF50B04B032744FDC167FD1700
:101BF000F98F0D67130707386387E7200D67130711
:101C000007386369F7040567130757166381E716FA
:101C1000056713075716636FF7001307F022638AEF
:101C2000E70C130760306381E710130760126388C5
:101C3000E70865A6096713078736638BE7160D6704
:101C4000130707126387E71809671307A714638050
:101C5000E71461A615671307A738638EE726156793
:101C60001307A7386362F702116713078738638089
:101C7000E7201567130787126385E72211671307AB
:101C80004712638CE71A91AE19671307C738638848
:101C9000E72A19671307C7386368F700196713073E
:101CA00067106384E72615AE1D671307E71063828C
:101CB000E72C1D671307E7386387E72E39AEB707B0
:101CC0000140D44FB7070140370700FC7D17758FDF
:101CD000D8CFB7070140D843B70701406D9BD8C3A1
:101CE000B7070140D843B707014013674700D8C37F
:101CF000EDA4B7070140D44FB7070140370700FCF8
:101D00007D17758FD8CFB7070140D44FB707014073
:101D100037070004558FD8CFB7070140D843B7071E
:101D200001406D9BD8C355ACB7070140D44FB707EE
:101D30000140370700FC7D17758FD8CFB7070140EA
:101D4000D44FB707014037070004558FD8CFB707E6
:101D50000140D843B70701406D9BD8C3B707014086
:101D6000D843B707014013674700D8C3BDA4B707DE
:101D70000140D843B70701405D9BD8C3B707014076
:101D8000D843B707014013678700D8C3B9A4B70782
:101D90000140D843B70701401377F7FCD8C3B70712
:101DA0000140D843B707014013670701D8C335A4E2
:101DB000B7070140D843B70701401377F7FCD8C3F2
:101DC000B7070140D843B707014013670703D8C3DB
:101DD00029A4B7070140D44FB70701403707FDFFDB
:101DE0007D17758FD8CFB7070140D44F832744FDA7
:101DF000A18313970701B70703007D8FB707014041
:101E0000558FD8CFD9AAB7070140D44FB7070140A3
:101E10003707FDFF7D17758FD8CFB7070140D44F27
:101E2000832744FDA18313970701B70703007D8F24
:101E3000B7070140558FD8CF4DA2B7070140D44F07
:101E4000B70701403707F4FF7D17758FD8CFB70765
:101E50000140D44F832744FDA18313972701B7077F
:101E60000C007D8FB7070140558FD8CFBDA2B707B3
:101E70000140D44FB70701403707F4FF7D17758F36
:101E8000D8CFB7070140D44F832744FDA1831397D0
:101E90002701B7070C007D8FB7070140558FD8CFBA
:101EA0002DAAB7070140D44FB70701403707D0FF2D
:101EB0007D17758FD8CFB7070140D44F832744FDD6
:101EC000A18313974701B70730007D8FB707014003
:101ED000558FD8CF19A2B7070140D44FB70701409B
:101EE0003707D0FF7D17758FD8CFB7070140D44F84
:101EF000832744FDA18313974701B70730007D8FE7
:101F0000B7070140558FD8CFC9A8B7070140D44FB4
:101F1000B7070140370740FF7D17758FD8CFB70748
:101F20000140D44F832744FDA18313976701B7076E
:101F3000C0007D8FB7070140558FD8CF79A8B7076C
:101F40000140D44FB7070140370740FF7D17758F19
:101F5000D8CFB7070140D44F832744FDA1831397FF
:101F60006701B707C0007D8FB7070140558FD8CFF5
:101F7000ADA0B7070140D44FB7070140370700FDB8
:101F80007D17758FD8CFB7070140D44F832744FD05
:101F9000A18313978701B70700037D8FB70701401F
:101FA000558FD8CF1DA8B7070140D44FB7070140C0
:101FB000370700FD7D17758FD8CFB7070140D44F85
:101FC000832744FDA18313978701B70700037D8F03
:101FD000B7070140558FD8CF01008327C4FD91E793
:101FE00085451165EF50B00B69A80327C4FD8547EF
:101FF0006318F700854537050200EF50B00E51A079
:102000000327C4FD89476318F70085453705040099
:10201000EF50500DBDA00327C4FD8D476318F70096
:10202000854537050800EF50F00BA1A80327C4FD34
:1020300091476318F700854537051000EF50900A67
:1020400089A00327C4FD95476318F700854513054C
:102050000004EF50300935A00327C4FD99476318E9
:10206000F700854513050008EF50D00719A803278E
:10207000C4FD9D476317F700854513050010EF5019
:102080007006232004FE232204FE232404FE2326BC
:1020900004FE832784FD2320F4FE231204FE231371
:1020A00004FE231404FE231604FEB1472315F4FE98
:1020B000D1670327C4FD0A0793878725BA979C43F6
:1020C0003E87930704FEBE853A85EF60806ED16738
:1020D0000327C4FD0A0793878725BA979C43854544
:1020E0003E85EF6050100100B2502254456182805D
:1020F000411106C622C4000883A781860547638B69
:10210000E7006386070C0947638DE7000D47638F7F
:10211000E702D9A083A741861387170023A2E1868F
:1021200065A883A741861387170023A2E18603A72A
:102130004186A54763FFE708B70700209387070498
:102140009C4B1167D8CB23A2018661A003A7C1864F
:1021500085476312F7081305F008EFE0AFCBAA87B5
:10216000B9CF1945EFF04FC8AA873E8783A74186AC
:102170001D8F9307600963F0E7061945EFF0AFD6AE
:1021800083A74186D3F717D05385F720EFC0F0001F
:10219000D16703A687D383A6C7D3EFB06045AA87CC
:1021A0002E883E85C285EFC00068AA871397070175
:1021B00041832394E180094723A6E18629A8194594
:1021C000EFF08FC2AA873E8723A2E18629A00100F3
:1021D00021A0010011A001000100B24022444101F0
:1021E0008280411106C622C4000883A78186094760
:1021F000637CF7000D47639AE7001945EFF0AFCE17
:10220000054723A6E18611A001000100B240224447
:1022100041018280011106CE22CC0010232204FE4F
:1022200083C711876381071409A8930734FE054605
:10223000BE8513850196EF204002930734FEBE85CC
:102240001D45EFF07F8AAA87EDF3034734FEA947C7
:10225000631BF71099472322F4FE130744FE9307EC
:1022600084FE85463A86BE8513850196EF20805D03
:10227000930784FE138737000D46D167938507D4F3
:102280003A85EFD09009AA879DEB03A781878947FC
:102290006304F70C054723ACE18613850196EF1024
:1022A0003074AA872322F4FE930744FE81463E86BB
:1022B0009385C19F13850196EF20C05871A893079D
:1022C00084FE138737000D46D167938547D43A853E
:1022D000EFD0B004AA879DEB03A741878947630D20
:1022E000F706054723AAE18613850196EF10506F84
:1022F000AA872322F4FE930744FE81463E869385F7
:10230000C19713850196EF20E053B9A0930784FE8F
:10231000138737000D46D167938587D43A85EFD070
:10232000C07FAA8795EB03A7C18789476306F70299
:10233000054723AEE18613850196EF10706AAA87E0
:102340002322F4FE930744FE81463E869385C1A76F
:1023500013850196EF20004F13850196EF10B043CF
:1023600005472388E1860100F240624405618280CE
:10237000011106CE22CC0010AA87A307F4FEB707EE
:10238000002093870704DC4713070020D8CB83473E
:10239000F4FEBE850545EFE0FFB8B7070020938740
:1023A0000704DC471307002098CB0100F240624489
:1023B00005618280011106CE22CC0010AA873687E3
:1023C0002317F4FEAE872316F4FEB2872315F4FE1E
:1023D000BA872314F4FE83C70181C207C183035760
:1023E000E4FEB337F70093F7F70F3E871306200B91
:1023F000D167938507E33A85EF10A06E83C71181FB
:10240000C207C1830357C4FEB337F70093F7F70F32
:102410003E871306300BD167938507E33A85EF10AB
:10242000406C83C70181C207C1830357A4FEB33741
:10243000F70093F7F70F3E871306400BD16793859C
:1024400007E33A85EF10E06983C71181C207C183B2
:10245000035784FEB337F70093F7F70F3E87130651
:10246000500BD167938507E33A85EF10806783A708
:1024700041880547638CE70681CB0947638AE70CEF
:102480000D476389E71249AA1305A002D535835782
:10249000E4FE93878702C207C183BE850545EFE04E
:1024A000DFAD8357A4FE93878702C207C183BE8531
:1024B0000545EFE09FAC1305B0025D3D8357C4FEB8
:1024C00093874703C207C183BE850545EFE0FFAA96
:1024D000835784FE93874703C207C183BE850545A2
:1024E000EFE0BFA91305C00261353DA21305A002AC
:1024F00041358357E4FE93878702C207C183BE85B7
:102500000545EFE09FA78357A4FE93878702C20784
:10251000C183BE850545EFE05FA61305B002893D86
:102520008357C4FE93875703C207C183BE85054501
:10253000EFE0BFA4835784FE93875703C207C1838C
:10254000BE850545EFE07FA31305C0021535E9A060
:102550001305A002313D8357E4FE93874703C2076A
:10256000C183BE850545EFE05FA18357A4FE938735
:102570004703C207C183BE850545EFE01FA01305D1
:10258000B002FD338357C4FE93878702C207C1831D
:10259000BE850545EFE07F9E835784FE93878702C3
:1025A000C207C183BE850545EFE03F9D1305C0020C
:1025B000C1339DA01305A002653B8357E4FE9387BA
:1025C0005703C207C183BE850545EFE01F9B8357B4
:1025D000A4FE93875703C207C183BE850545EFE07C
:1025E000DF991305B00269338357C4FE93878702CE
:1025F000C207C183BE850545EFE03F98835784FE3F
:1026000093878702C207C183BE850545EFE0FF9629
:102610001305C002B13B01000100F24062440561B4
:102620008280797106D622D400189307C4FD3E85B6
:10263000EF10A0518547231EF4FC83C70181C20718
:10264000C183231FF4FC83C71181C207C1832310F8
:10265000F4FE83A7C1800547638AE70099EF994795
:102660002301F4FEA147A301F4FE09A8A147230119
:10267000F4FEC147A301F4FE11A00100B73700002A
:102680009387A7B42324F4FEB72700009387876AB3
:102690002326F4FE9307C4FD3E85EF10A0500100F1
:1026A000B250225445618280011106CE22CC26CA46
:1026B00000100A85AA8403C50181AA88FD18232277
:1026C00014FF2A8381439358C3011397430033E7D0
:1026D000E80093164300AA85014613D7C5011318D5
:1026E00046003368070193974500AA878607BD0710
:1026F000918392073301F1408A8785078583860796
:102700002320F4FE232404FE232604FEB707002022
:1027100093870704DC4713070010D8CB83C70181D8
:10272000C207C183FD1713970701418383C7118136
:10273000C207C183FD17C207C183BE863A868145A1
:1027400001458D39232404FE05A003D70188832683
:1027500004FE832784FE8607B6972390E70083272D
:1027600084FE85072324F4FE83C701813E878327E7
:1027700084FEE3ECE7FC232604FE39A8032704FECD
:1027800083C701813E86BA850545EFE05F898327CF
:10279000C4FE85072326F4FE83C711813E87832765
:1027A000C4FEE3EDE7FCB707002093870704DC478E
:1027B0001307001098CB26810100130104FEF2409C
:1027C0006244D24405618280011122CE001023268A
:1027D000A4FE0327C4FE23A2E18883A741880547FE
:1027E0006376F7000D476363F70209A84157238812
:1027F000E180130770F8A388E18009A8130770F837
:102800002388E1804157A388E180010001007244E0
:1028100005618280011122CE0010AA872E8723171E
:10282000F4FEBA872316F4FE0357E4FE2395E180F5
:102830000357C4FE2390E188010072440561828041
:1028400069712326111223248112001AAA87AE86E9
:102850003287231FF4ECB687231EF4ECBA87A30D4E
:10286000F4EC83C70181C207C1830357E4EDB3379A
:10287000F70093F7F70F3E871306601DD167938526
:1028800007E33A85EF10E02583C71181C207C183B2
:102890000357C4EDB337F70093F7F70F3E871306DE
:1028A000701DD167938507E33A85EF108023A30756
:1028B00004FE230704FEB707002093870704DC47C4
:1028C00013070010D8CB83A7C1800547638AE70EA2
:1028D000639D07248357E4ED950713960701418212
:1028E0008357C4ED9D0793960701C1820357C4ED3A
:1028F0008357E4EDBA853E85EFF0DFABA30704FE16
:1029000055A08307B4ED138707FE8346F4FE556692
:10291000BA878607BA97860713078686BA97B69747
:1029200083C70700A306F4FE230704FE95A0834790
:10293000D4FE858B9DC38346F4FE0347E4FEBA872D
:102940008607BA978607B69703D7A18086079306AE
:1029500004FFB697239CE7EE15A08346F4FE0347D9
:10296000E4FEBA878607BA978607B69703D7018829
:102970008607930604FFB697239CE7EE8347D4FEB1
:102980008583A306F4FE8347E4FE85072307F4FE50
:102990000347E4FE9D47E3FCE7F88347F4FE850721
:1029A000A307F4FE0347F4FE9547E3FCE7F493071F
:1029B00084EE13060003BE850545EFE04FE6BDA299
:1029C0008357E4ED9D071396070141828357C4EDB9
:1029D000BD0793960701C1820357C4ED8357E4ED09
:1029E000BA853E85EFF01F9DA30704FE0DA2830765
:1029F000B4ED938607FE8347F4FE516792061307F2
:102A000087273697BA9783C707002306F4FE830704
:102A1000B4ED938607FE8347F4FEA1075167920643
:102A2000130787273697BA9783C70700A305F4FED5
:102A3000230704FEA1A88347C4FE858B85C30347F3
:102A4000F4FE8347E4FE8E07BA9703D7A18086077A
:102A5000930604FFB697239CE7EE39A80347F4FEDC
:102A60008347E4FE8E07BA9703D70188860793064B
:102A700004FFB697239CE7EE8347C4FE85832306B5
:102A8000F4FE8347E4FE85072307F4FE0347E4FED4
:102A90009D47E3F2E7FA230704FE85A08347B4FECF
:102AA000858B95C30347F4FE8347E4FE8E07BA97F0
:102AB0009387070403D7A1808607930604FFB69780
:102AC000239CE7EE0DA00347F4FE8347E4FE8E0748
:102AD000BA979387070403D701888607930604FFF4
:102AE000B697239CE7EE8347B4FE8583A305F4FEE7
:102AF0008347E4FE85072307F4FE0347E4FE9D4772
:102B0000E3FEE7F88347F4FE8507A307F4FE0347D7
:102B1000F4FE9D47E3FDE7EC930784EE13060008FF
:102B2000BE850545EFE0AFCF11A00100B70700203B
:102B300093870704DC471307001098CB010083201C
:102B4000C1120324811255618280797106D622D484
:102B50000018AA872E87232CC4FC231FF4FCBA87F5
:102B6000231EF4FC83C70181C207C1830357E4FD20
:102B7000B337F70093F7F70F3E871306D022D167DC
:102B8000938507E33A85EF00D07583C71181C207AB
:102B9000C1830357C4FDB337F70093F7F70F3E87A0
:102BA0001306E022D167938507E33A85EF0070733F
:102BB000231704FE71A083A7C18005476381E70442
:102BC000B5EB0357E4FEBA878607BA9786071397D3
:102BD000070141838357E4FDBA9793960701C182A9
:102BE0008357E4FE032784FDBA97038707008357C2
:102BF000C4FD3A86BE853685EFF09FC42DA8835765
:102C0000E4FE8E071397070141838357E4FDBA97CB
:102C100093960701C1828357E4FE032784FDBA9788
:102C2000038707008357C4FD3A86BE853685EFF0DB
:102C30003FC111A001008357E4FE85072317F4FE6E
:102C40008357E4FE032784FDBA9783870700A5F71F
:102C50000100B250225445618280397106DE22DCC7
:102C60008000AA872324C4FC36872317F4FCAE8790
:102C70002316F4FCBA87A303F4FC83C70181C207BF
:102C8000C1830357E4FCB337F70093F7F70F3E8790
:102C90001306B024D167938507E33A85EF0070648B
:102CA00083C71181C207C1830357C4FCB337F70040
:102CB00093F7F70F3E871306C024D167938507E388
:102CC0003A85EF001062834774FCB337F00093F746
:102CD000F70F3E871306D024D167938507E33A8523
:102CE000EF003060834774FC93B7B70093F7F70F9A
:102CF0003E871306E024D167938507E33A85EF000A
:102D0000505E832784FC2326F4FE85472324F4FEAB
:102D10009307C4FD314681453E85EFD06FCE834792
:102D200074FC85073E879307C4FD3A86930500022D
:102D30003E85EFD0EFCC034774FCA54763EBE70279
:102D400031A8032784FEBA878A07BA978607232407
:102D5000F4FE834774FCFD17A303F4FC834774FC63
:102D6000EDF30327C4FE832784FEB367F70223260F
:102D7000F4FE9307C4FD8325C4FE3E85EF20402B5F
:102D80009306C4FD0357C4FC8357E4FC3686BA851A
:102D90003E85653B0100F2506254216182803971A9
:102DA00006DE22DC8000AA872324C4FC3687231792
:102DB000F4FCAE872316F4FCBA87A303F4FC83C7A4
:102DC0000181C207C1830357E4FCB337F70093F7CF
:102DD000F70F3E8713062027D167938507E33A85CF
:102DE000EF00305083C71181C207C1830357C4FC71
:102DF000B337F70093F7F70F3E8713063027D167F5
:102E0000938507E33A85EF00D04D834774FCB337D1
:102E1000F00093F7F70F3E8713064027D16793859D
:102E200007E33A85EF00F04B834774FC93B7B70094
:102E300093F7F70F3E8713065027D167938507E373
:102E40003A85EF00104A832784FC2326F4FE854749
:102E50002324F4FE9307C4FD314681453E85EFD01F
:102E60002FBA034774FC9307C4FD3A86930500020A
:102E70003E85EFD0EFB8034774FCA54763EBE7024C
:102E800031A8032784FEBA878A07BA9786072324C6
:102E9000F4FE834774FCFD17A303F4FC834774FC22
:102EA000EDF3832784FE0327C4FEB377F7022326BE
:102EB000F4FE9307C4FD8325C4FE3E85EF20A028C1
:102EC0009306C4FD0357C4FC8357E4FC3686BA85D9
:102ED0003E85EFF09FC70100F2506254216182806D
:102EE000411106C622C400081308F00FC167F91784
:102EF00005671307F70285669386D60237A64A044C
:102F00001306062081450545EFE0AF9FC146014607
:102F1000854513059006EFD0AFFAC14601468545B9
:102F20001305A006EFD0CFF9C14605468545130528
:102F30008006EFD0EFF8C14605468545130500062B
:102F4000EFD00FF883A741883E85EFF0FF8703D7C6
:102F5000A18083D70188BE853A85EFF0BF8BB70784
:102F6000002093870704DC4713070040D8CB1305E4
:102F7000800CEFD00FE0B707002093870704DC47F1
:102F80001307004098CB13054006EFD08FDEB7073C
:102F9000002093870704DC4713070010D8CB1305E4
:102FA0006003EFF0EFBC13054006EFD08FDC83A782
:102FB000418805476380E70281CB09476382E702C6
:102FC0000D476384E70205A89305000A0545EFD085
:102FD0007FF515A0930500070545EFD0BFF421A8A4
:102FE00081450545EFD01FF439A09305000C054538
:102FF000EFD05FF301001305A003EFF06FB7954525
:103000000545EFD03FF21305200BEFF06FB6B14549
:103010000545EFD03FF1B1450545EFD0BFF0814503
:103020000545EFD03FF0930530030545EFD09FEF06
:10303000930530030545EFD0FFEE1305700BEFF05D
:103040002FB3930550030545EFD0DFED1305B00B0B
:10305000EFF00FB2930570030545EFD0BFEC1305F9
:10306000000CEFF0EFB09305C0020545EFD09FEBE9
:103070001305200CEFF0CFAF85450545EFD09FEA53
:103080001305300CEFF0CFAEC9450545EFD09FE9F1
:103090001305400CEFF0CFAD930500020545EFD0CE
:1030A0007FE81305600CEFF0AFACBD450545EFD0F0
:1030B0007FE71305000DEFF0AFAB9305400A054520
:1030C000EFD05FE69305100A0545EFD0BFE5130585
:1030D000000EEFF0EFA99305000D0545EFD09FE43A
:1030E00091450545EFD01FE4B5450545EFD09FE379
:1030F000C5450545EFD01FE3CD450545EFD09FE21F
:103100009305B0020545EFD0FFE19305F0030545B7
:10311000EFD05FE1930540050545EFD0BFE0930593
:10312000C0040545EFD01FE0E1450545EFD09FDF26
:10313000B5450545EFD01FDFAD450545EFD09FDE16
:10314000FD450545EFD01FDE930530020545EFD064
:103150007FDD1305100EEFF0AFA19305000D0545BF
:10316000EFD05FDC91450545EFD0DFDBB14505458C
:10317000EFD05FDBC5450545EFD0DFDACD4505452E
:10318000EFD05FDA9305C0020545EFD0BFD99305B4
:10319000F0030545EFD01FD9930540040545EFD056
:1031A0007FD8930510050545EFD0DFD79305F002D2
:1031B0000545EFD03FD7FD450545EFD0BFD6FD45CE
:1031C0000545EFD03FD6930500020545EFD09FD5CA
:1031D000930530020545EFD0FFD413051002EFF040
:1031E0002F994545EFF0CF9813058007EFD06FB8C2
:1031F00013059002EFF0CF97B707002093870704DD
:10320000DC471307001098CBEFF00FCAEFF06FC147
:103210000100B240224441018280411122C60008CF
:103220000100324441018280411122C60008B717D3
:1032300002409843B71702401367170098C3B717A7
:103240000240D443B71702403707FFF8758FD8C341
:10325000B71702409443B71702403707F7FE7D17B0
:10326000758F98C3B71702409443B71702403707CA
:10327000FCFF7D17758F98C3B7170240D443B7176B
:103280000240370781FF7D17758FD8C3B7170240FB
:1032900037079F0098C7010032444101828079714D
:1032A00006D622D40018232EA4FCBD3F232604FEFC
:1032B000232404FEB71702409443B7170240416726
:1032C000558F98C3B71702409843B7070200F98F8C
:1032D0002324F4FE8327C4FE85072326F4FE8327D8
:1032E00084FE91E70327C4FE8567E31DF7FCB7174B
:1032F00002409843B7070200F98F89C78547232406
:10330000F4FE19A0232404FE032784FE85476312DC
:10331000F71637170240B71702405843D8C337177C
:103320000240B71702405843D8C337170240B717B7
:1033300002405843D8C3B7170240D443B7170240DE
:103340003707C1FF7D17758FD8C30327C4FDB74763
:10335000950893870740631BF700B7170240D443D3
:10336000B71702404167558FD8C355A80327C4FD3E
:10337000B7172707938707E0631CF700B7170240CA
:10338000D443B717024037073900558FD8C341A837
:103390000327C4FDB7E7B80593870780631CF700D0
:1033A000B7170240D443B717024037072900558F9B
:1033B000D8C3B5A00327C4FDB7A74A049387072045
:1033C000631CF700B7170240D443B7170240370712
:1033D0001D00558FD8C3A1A00327C4FDB777DC0219
:1033E000938707C0631CF700B7170240D443B71791
:1033F000024037071100558FD8C315A00327C4FD1D
:10340000B7376E0193870760631BF700B717024059
:10341000D443B717024037070500558FD8C3B717F5
:1034200002409443B717024037070001558F98C3F5
:103430000100B71702409843B7070002F98FF5DB88
:10344000B7170240D843B7170240719BD8C3B717CC
:103450000240D843B717024013672700D8C30100C2
:10346000B7170240DC4313F7C700A147E31AF7FE82
:1034700011A001A0B250225445618280011106CEF4
:1034800022CC00102326A4FE0327C4FE23A2E1823F
:10349000EFF09FD90325C4FEEFF07FE0EF1010702E
:1034A0000100F240624405618280411122C6000899
:1034B00001000100324441018280011106CE22CC7C
:1034C0000010232604FE232404FE232604FE25A048
:1034D000232404FE39A0D13F832784FE85072324BB
:1034E000F4FE032784FEC167E367F7FE8327C4FE6B
:1034F00085072326F4FE0327C4FE9307F00FE3F9A4
:10350000E7FC0100F240624405618280411122C65D
:1035100000080100324441018280011106CE22CC14
:1035200000102326A4FE8325C4FE0945EFE08FCDBD
:103530000100F240624405618280130101D9232613
:1035400011262324812623229126801C232EA4D8F1
:10355000232CB4D8232AC4D82328D4D8231504FE76
:10356000231404FE231304FE231204FE231104FE7D
:10357000032584D9EFC04059AA87C207C187231306
:10358000F4FE83D781B589C7938781B59C4B829719
:1035900083C7818893F7F70F638D074A83D781B577
:1035A00063870744938781B5D447835724FE1397D5
:1035B0000701418793170701C1838507C207C183AC
:1035C000C207C1872311F4FE93170701C1830326A5
:1035D000C4D9BE8501458296832784D92326F4FE6B
:1035E000032584D9EFC04052AA87C207C18723139D
:1035F000F4FE938781B583D727003E87938781B5F3
:1036000083C76700B347F702C207C1872312F4FEDE
:1036100001008327C4FE138717002326E4FE838757
:103620000700E5FB231404FEA1A88327C4FEFD17B1
:103630002326F4FE8327C4FE038707009307F002C6
:10364000630AF7008327C4FE038707009307C005BA
:10365000631BF700835784FEC207C1838507C20737
:10366000C1832314F4FE835764FEC207C187C207D7
:10367000C183FD17C207C183C207C1872313F4FEAC
:10368000835784FE139707014183854763E8E7006A
:10369000835764FEC207C187E3D907F8835764FEE6
:1036A000C207C18763C207028327C4FE850723269A
:1036B000F4FE130704EE0326C4FED167938507EAE0
:1036C0003A85EFC000401DA8835784FEC207C1831E
:1036D00081EF130704EE0326C4FED1679385C7EA82
:1036E0003A85EFC0003E19A8130704EE0326C4FE76
:1036F000D167938507EA3A85EFC0A03C231504FE05
:1037000021AA231404FE59A0930704EE3E85EFC0BE
:10371000A03F2A87835784FEC207C183BE86835792
:10372000A4FEC207C1833E86835744FEC207C187F9
:10373000B307F602B6976367F706835784FEC2079E
:10374000C1833E878357A4FEC207C183BE868357C9
:1037500044FEC207C187B387F602BA97035784FEB7
:1037600042074183BA86130704FFBA97038707EF1E
:10377000930704FFB6972388E7EA835784FEC207BE
:10378000C1838507C207C1832314F4FE835784FED7
:10379000C207C1833E87835744FEC207C187E34502
:1037A000F7F611A00100835784FEC207C1831307F7
:1037B00004FFBA97238807EA938781B503A8C70057
:1037C000938781B583C77700139707014183835798
:1037D00024FE93960701C18693970601C18385074E
:1037E000C207C183C207C1872311F4FE9397060164
:1037F000C183B307F702C207C183130704EA3A86FD
:10380000BE85014502988357A4FEC207C183850780
:10381000C207C1832315F4FE8357A4FEC207C183E8
:10382000BE84930704EE3E85EFC0002E2A8783579F
:1038300044FEC207C187B357F7028507E3E3F4EC00
:10384000130704EE032644D9D1679385C7EB3A8565
:10385000EFC02027938781B503A8C700938781B560
:1038600083C77700139707014183835724FE9396FC
:103870000701C18693970601C1838507C207C183EB
:10388000C207C1872311F4FE93970601C183B307D2
:10389000F702C207C183130704EE3A86BE850145CD
:1038A0000298832704D96386071A231504FE21AAE8
:1038B000231404FE59A0032504D9EFC0E0242A876D
:1038C000835784FEC207C183BE868357A4FEC20706
:1038D000C1833E86835744FEC207C187B307F60201
:1038E000B6976368F706835784FEC207C1833E8795
:1038F0008357A4FEC207C183BE86835744FEC20716
:10390000C187B387F602BA973E87832704D9BA974F
:10391000035784FE42074183BA8603870700930753
:1039200004FFB6972388E7EA835784FEC207C18362
:103930008507C207C1832314F4FE835784FEC207A0
:10394000C1833E87835744FEC207C187E345F7F62C
:1039500011A00100835784FEC207C183130704FF2F
:10396000BA97238807EA938781B503A8C70093878E
:1039700081B583C77700139707014183835724FEDE
:1039800093960701C18693970601C1838507C207F5
:10399000C183C207C1872311F4FE93970601C18337
:1039A000B307F702C207C183130704EA3A86BE854C
:1039B000014502988357A4FEC207C1838507C20749
:1039C000C1832315F4FE8357A4FEC207C183BE84BE
:1039D000032504D9EFC040132A87835744FEC2074A
:1039E000C187B357F7028507E3E4F4EC9DA0930782
:1039F00004DA1306001081453E85EFC07F8093876F
:103A000081B59C470325C4D98297832704D999CFD0
:103A1000130504DA032704D9832644D9032684D95D
:103A2000D167938587ECEFC0C00929A8130704DA92
:103A3000832644D9032684D9D167938547EE3A85F6
:103A4000EFC02008938781B59847930704DA3E8535
:103A5000029701008320C126032481268324412666
:103A6000130101278280797106D622D40018232EF3
:103A7000A4FC232CB4FC232AC4FC232604FEA9A006
:103A80000100D167938787259C47930500043E85F5
:103A9000EF50800AAA87F5D7D167938787259C477F
:103AA000BE86832784FD13871700232CE4FC8387BD
:103AB0000700C207C183BE853685EF500005832706
:103AC000C4FE85072326F4FE0327C4FE832744FD96
:103AD000E348F7FA832744FD3E85B25022544561FE
:103AE0008280011106CE22CC0010AA872324B4FEC6
:103AF0002322C4FEA307F4FE8347F4FEB1E383C789
:103B0000818293F7F70F8DCF83C7918891C301A06E
:103B100083C79188850713F7F70FA384E188EF1017
:103B20003005EFF0BF9E8146032644FE832584FEC8
:103B3000D1671385C7EFEFF05FA0EFF01F98E5B7EF
:103B40000100F240624405618280011122CE001022
:103B50002326A4FE8327C4FE239007008327C4FEE8
:103B60007D572391E7008327C4FE7D572392E7000A
:103B70008327C4FE7D572383E7008327C4FE7D5738
:103B8000A383E7008327C4FE23A407008327C4FE82
:103B900023A607008327C4FE23A807000100724460
:103BA00005618280011122CE00102326A4FE832706
:103BB000C4FE03D70700239CE1B48327C4FE03D7C8
:103BC0002700938781B52391E7008327C4FE03D79D
:103BD0004700938781B52392E7008327C4FE03C77C
:103BE0006700938781B52383E7008327C4FE03C75B
:103BF0007700938781B5A383E7008327C4FE9847A6
:103C0000938781B598C78327C4FED847938781B52A
:103C1000D8C78327C4FE984B938781B598CB0547B7
:103C20002384E1880100724405618280797106D69F
:103C300022D400189307C4FD3E85EFF01FF1B7377B
:103C400000009387A7512322F4FE9307C4FD3E850D
:103C5000913F89679386B70289671386A702F16748
:103C6000938507200945EFD01FEE930600041386C5
:103C7000C1AF81451385C1B3EF10001785450945D4
:103C8000EFD05FDE0100B250225445618280011105
:103C900022CE00102326A4FE2324B4FE8327C4FED4
:103CA00003C7970083C6A700A206558F83C6B70037
:103CB000C206558F83C7C700E207D98F3E87832787
:103CC00084FE3E978327C4FE9375F70F83C6970043
:103CD000818A3686AE86D18EA384D700935687001C
:103CE00093F5F60F83C6A700818A3686AE86D18EFD
:103CF0002385D7009356070193F5F60F83C6B700C7
:103D0000818A3686AE86D18EA385D7001356870169
:103D100003C7C700018BBA863287558F2386E70019
:103D200055A08327C4FE03C7970083C6A700A20639
:103D3000558F83C6B700C206558F83C7C700E207F9
:103D4000D98F3E868327C4FE03C7570183C6670108
:103D5000A206558F83C67701C206558F83C7870198
:103D6000E207D98F3307F6408327C4FE9375F70F18
:103D700083C69700818A3686AE86D18EA384D7000B
:103D80009356870093F5F60F83C6A700818A36867F
:103D9000AE86D18E2385D7009356070193F5F60F93
:103DA00083C6B700818A3686AE86D18EA385D700BA
:103DB0001356870103C7C700018BBA863287558F18
:103DC0002386E7008327C4FE03C7570183C6670124
:103DD000A206558F83C67701C206558F83C7870118
:103DE000E207D98F3E868327C4FE03C7970083C6A8
:103DF000A700A206558F83C6B700C206558F83C79A
:103E0000C700E207D98FE3FEC7F0010072440561E5
:103E10008280011122CE00102326A4FE2324B4FEAA
:103E20008327C4FE03C7D70083C6E700A206558FC9
:103E300083C6F700C206558F83C70701E207D98FF3
:103E40003E87832784FE3E978327C4FE9375F70F32
:103E500083C6D700818A3686AE86D18EA386D700E8
:103E60009356870093F5F60F83C6E700818A36865E
:103E7000AE86D18E2387D7009356070193F5F60FB0
:103E800083C6F700818A3686AE86D18EA387D70097
:103E90001356870103C70701018BBA863287558FF6
:103EA0002388E70055A08327C4FE03C7D70083C635
:103EB000E700A206558F83C6F700C206558F83C759
:103EC0000701E207D98F3E868327C4FE03C7570147
:103ED00083C66701A206558F83C67701C206558F38
:103EE00083C78701E207D98F3307F6408327C4FED3
:103EF0009375F70F83C6D700818A3686AE86D18E3A
:103F0000A386D7009356870093F5F60F83C6E70084
:103F1000818A3686AE86D18E2387D70093560701D5
:103F200093F5F60F83C6F700818A3686AE86D18E6A
:103F3000A387D7001356870103C70701018BBA86F1
:103F40003287558F2388E7008327C4FE03C75701B4
:103F500083C66701A206558F83C67701C206558FB7
:103F600083C78701E207D98F3E868327C4FE03C734
:103F7000D70083C6E700A206558F83C6F700C206A6
:103F8000558F83C70701E207D98FE3FEC7F0010011
:103F9000724405618280797106D622D40018232EDE
:103FA000A4FC8327C4FDB337F00093F7F70F3E87D7
:103FB00013065005D167938587F13A85EFF07FB2FC
:103FC000232604FE8327C4FD83C7070093E7170059
:103FD00013F7F70F8327C4FD2380E7008327C4FD71
:103FE00003C79700018BA384E70003C7A700018BD9
:103FF0002385E70003C7B700018BA385E70003C74C
:10400000C700018B2386E7008327C4FD03C7D700C1
:10401000018BA386E70003C7E700018B2387E70036
:1040200003C7F700018BA387E70003C70701018BD4
:104030002388E7008327C4FD03C7570183C66701B0
:10404000A206558F83C67701C206558F83C78701A5
:10405000E207D98F3E878327C4FD9375F70F83C688
:104060001701818A3686AE86D18EA388D7009356F3
:10407000870093F5F60F83C62701818A3686AE86C0
:10408000D18E2389D7009356070193F5F60F83C687
:104090003701818A3686AE86D18EA389D700135622
:1040A000870103C74701018BBA863287558F238A60
:1040B000E7008327C4FD03C7170083C62700A206B5
:1040C000558F83C63700C206558F83C74700E20766
:1040D000D98F0547638DE70489C709476380E70ADD
:1040E000EDA08327C4FD03C7570083C66700A2065F
:1040F000558F83C67700C206558F83C78700E207B6
:10410000D98F3E858327C4FD03C7570183C6670146
:10411000A206558F83C67701C206558F83C78701D4
:10412000E207D98F3E868145EFC08F8D79A883271E
:10413000C4FD03C7570083C66700A206558F83C618
:104140007700C206558F83C78700E207D98F3E8567
:104150008327C4FD03C7570183C66701A206558F95
:1041600083C67701C206558F83C78701E207D98FBF
:1041700086073E868145EFC0AF8881A88327C4FDAE
:1041800003C7570083C66700A206558F83C6770012
:10419000C206558F83C78700E207D98F3E858327E4
:1041A000C4FD03C7570183C66701A206558F83C6A6
:1041B0007701C206558F83C78701E207D98F8A0727
:1041C0003E868145EFC0CF8301008327C4FD238055
:1041D00007008327C4FE3E85B25022544561828089
:1041E000011106CE22CC00102326A4FE8327C4FE94
:1041F000B337F00093F7F70F3E8713066007D167D8
:10420000938587F13A85EFF0DF8D8327C4FE03C7DE
:10421000570183C66701A206558F83C67701C20680
:10422000558F83C78701E207D98F3E868327C4FE57
:1042300003C7170183C62701A206558F83C637011E
:10424000C206558F83C74701E207D98FB307F640EF
:104250003E85F240624405618280797106D622D49F
:104260000018232EA4FC232CB4FC232AC4FC83278F
:10427000C4FDB337F00093F7F70F3E871306000B2A
:10428000D167938587F13A85EFF0BF85232604FE39
:10429000232404FE832784FD89E78D472326F4FE2B
:1042A00059AB8327C4FD83C70700958B93F7F70F9E
:1042B00089C791472326F4FEBDAB8327C4FD83C77E
:1042C000070093E7470013F7F70F8327C4FD238008
:1042D000E7008327C4FD03C7170183C62701A20691
:1042E000558F83C63701C206558F83C74701E20742
:1042F000D98F3E87832744FD6361F7528327C4FD2E
:1043000003C7570183C66701A206558F83C677018D
:10431000C206558F83C78701E207D98F3E86832760
:10432000C4FD03C7970083C6A700A206558F83C6A6
:10433000B700C206558F83C7C700E207D98FB307FE
:10434000F6402324F4FE032744FD832784FE63F311
:10435000E72E8327C4FD03C7170083C62700A206E4
:10436000558F83C63700C206558F83C74700E207C3
:10437000D98F05476385E70E89C709476386E71C20
:1043800011A98327C4FD03C7570083C66700A2068F
:10439000558F83C67700C206558F83C78700E20713
:1043A000D98F3E868327C4FD03C7970083C6A70025
:1043B000A206558F83C6B700C206558F83C7C700B4
:1043C000E207D98FB297032684FE832584FD3E85BC
:1043D000EFA09025832584FE0325C4FDEFF03F8BDD
:1043E0008327C4FD03C7570083C66700A206558F05
:1043F00083C67700C206558F83C78700E207D98F2F
:104400003E868327C4FD03C7970083C6A700A20684
:10441000558F83C6B700C206558F83C7C700E20712
:10442000D98FB306F600032784FD832784FEB305E6
:10443000F700032744FD832784FEB307F7403E8639
:104440003685EFA0701E032744FD832784FEB30743
:10445000F740BE850325C4FDEFF07F8325AE83279B
:10446000C4FD03C7570083C66700A206558F83C6E5
:104470007700C206558F83C78700E207D98F3E8633
:104480008327C4FD03C7970083C6A700A206558FE4
:1044900083C6B700C206558F83C7C700E207D98F0E
:1044A00086073307F600832784FE86073E8683252A
:1044B00084FD3A85EFA05017832584FE0325C4FDB3
:1044C000EFF0EFFC8327C4FD03C7570083C66700E6
:1044D000A206558F83C67700C206558F83C7870013
:1044E000E207D98F3E868327C4FD03C7970083C6A2
:1044F000A700A206558F83C6B700C206558F83C793
:10450000C700E207D98F8607B306F600832784FE2B
:104510008607032784FDB305F700032744FD83279F
:1045200084FEB307F74086073E863685EFA0D00F9E
:10453000032744FD832784FEB307F740BE85032588
:10454000C4FDEFF0CFF4B9A48327C4FD03C757001F
:1045500083C66700A206558F83C67700C206558FB3
:1045600083C78700E207D98F3E868327C4FD03C730
:10457000970083C6A700A206558F83C6B700C20660
:10458000558F83C7C700E207D98F8A073307F60024
:10459000832784FE8A073E86832584FD3A85EFA023
:1045A000B008832584FE0325C4FDEFF04FEE83277A
:1045B000C4FD03C7570083C66700A206558F83C694
:1045C0007700C206558F83C78700E207D98F3E86E2
:1045D0008327C4FD03C7970083C6A700A206558F93
:1045E00083C6B700C206558F83C7C700E207D98FBD
:1045F0008A07B306F600832784FE8A07032784FD13
:10460000B305F700032744FD832784FEB307F74073
:104610008A073E863685EFA03001032744FD8327B5
:1046200084FEB307F740BE850325C4FDEFF02FE6F7
:1046300001008DA28327C4FD03C7170083C627008E
:10464000A206558F83C63700C206558F83C7470021
:10465000E207D98F05476387E70689C7094763875C
:10466000E70C0DAA8327C4FD03C7570083C6670064
:10467000A206558F83C67700C206558F83C7870071
:10468000E207D98F3E868327C4FD03C7970083C600
:10469000A700A206558F83C6B700C206558F83C7F1
:1046A000C700E207D98FB297032644FD832584FD16
:1046B0003E85EFA06077832544FD0325C4FDEFF020
:1046C0000FDDC9A88327C4FD03C7570083C6670051
:1046D000A206558F83C67700C206558F83C7870011
:1046E000E207D98F3E868327C4FD03C7970083C6A0
:1046F000A700A206558F83C6B700C206558F83C791
:10470000C700E207D98F86073307F600832744FDE9
:1047100086073E86832584FD3A85EFA0E0708325D9
:1047200044FD0325C4FDEFF08FD6ADA08327C4FD63
:1047300003C7570083C66700A206558F83C677005C
:10474000C206558F83C78700E207D98F3E8683272D
:10475000C4FD03C7970083C6A700A206558F83C672
:10476000B700C206558F83C7C700E207D98F8A07F3
:104770003307F600832744FD8A073E86832584FDA0
:104780003A85EFA0606A832544FD0325C4FDEFF060
:104790000FD001008327C4FD03C7170183C627017B
:1047A000A206558F83C63701C206558F83C74701BE
:1047B000E207D98F3E87832744FD1D8F8327C4FDE1
:1047C0009375F70F83C61701818A3686AE86D18E20
:1047D000A388D7009356870093F5F60F83C6270169
:1047E000818A3686AE86D18E2389D70093560701FB
:1047F00093F5F60F83C63701818A3686AE86D18E51
:10480000A389D7001356870103C74701018BBA86D6
:104810003287558F238AE70021A095472326F4FE8F
:104820008327C4FD83C70700ED9B13F7F70F83278A
:10483000C4FD2380E7008327C4FE3E85B250225486
:1048400045618280797106D622D40018232EA4FCFB
:10485000232CB4FC232AC4FC2328D4FC8327C4FDC6
:10486000B337F00093F7F70F3E8713061016D167A2
:10487000938587F13A85EFF0CFA6832744FDB337C0
:10488000F00093F7F70F3E8713062016D167938544
:1048900087F13A85EFF0EFA4232604FE232404FEDB
:1048A000232204FE832784FD89E78D472326F4FE17
:1048B000A9A18327C4FD83C707008D8B93F7F70F4A
:1048C00091CB832744FD032744FE98C399472326B1
:1048D000F4FE21A30325C4FDEFF09F902322A4FE44
:1048E000832744FD9C43032744FE6379F702832713
:1048F00044FD032744FE98C39D472326F4FE8327E7
:1049000044FE89EF8327C4FD83C70700DD9B13F7AF
:10491000F70F8327C4FD2380E700C1A18327C4FDCF
:1049200083C7070093E7870013F7F70F8327C4FDBA
:104930002380E7008327C4FD03C7570183C66701AF
:10494000A206558F83C67701C206558F83C787019C
:10495000E207D98F3E868327C4FD03C7D70083C6ED
:10496000E700A206558F83C6F700C206558F83C79E
:104970000701E207D98FB307F6402324F4FE83270B
:1049800044FD9C43032784FE6366F7148327C4FD1C
:1049900003C7170083C62700A206558F83C63700BA
:1049A000C206558F83C74700E207D98F0547638446
:1049B000E70689C70947638FE70A2DA68327C4FD49
:1049C00003C7570083C66700A206558F83C67700CA
:1049D000C206558F83C78700E207D98F3E8683279B
:1049E000C4FD03C7D70083C6E700A206558F83C660
:1049F000F700C206558F83C70701E207D98F330737
:104A0000F600832744FD9C433E86BA85032584FD3A
:104A1000EFA08041C1AC8327C4FD03C7570083C604
:104A20006700A206558F83C67700C206558F83C7DD
:104A30008700E207D98F3E868327C4FD03C7D700CE
:104A400083C6E700A206558F83C6F700C206558FBE
:104A500083C70701E207D98F86073307F60083274C
:104A600044FD9C4386073E86BA85032584FDEFA05E
:104A7000A03B8DAC8327C4FD03C7570083C66700E6
:104A8000A206558F83C67700C206558F83C787005D
:104A9000E207D98F3E868327C4FD03C7D70083C6AC
:104AA000E700A206558F83C6F700C206558F83C75D
:104AB0000701E207D98F8A073307F600832744FDF1
:104AC0009C438A073E86BA85032584FDEFA0C03546
:104AD000010009AC8327C4FD03C7170083C6270064
:104AE000A206558F83C63700C206558F83C747007D
:104AF000E207D98F05476383E70A89C709476381BE
:104B0000E714CDA28327C4FD03C7570083C66700FF
:104B1000A206558F83C67700C206558F83C78700CC
:104B2000E207D98F3E868327C4FD03C7D70083C61B
:104B3000E700A206558F83C6F700C206558F83C7CC
:104B40000701E207D98FB297032684FEBE850325AD
:104B500084FDEFA0602D032784FD832784FE3305A9
:104B6000F7008327C4FD03C7570083C66700A2066A
:104B7000558F83C67700C206558F83C78700E2072B
:104B8000D98FBE86832744FD9843832784FEB307CD
:104B9000F7403E86B685EFA02029A9A28327C4FD51
:104BA00003C7570083C66700A206558F83C67700E8
:104BB000C206558F83C78700E207D98F3E868327B9
:104BC000C4FD03C7D70083C6E700A206558F83C67E
:104BD000F700C206558F83C70701E207D98F860702
:104BE0003307F600832784FE86073E86BA850325B1
:104BF00084FDEFA06023832784FE8607032784FDBE
:104C00003305F7008327C4FD03C7570083C6670039
:104C1000A206558F83C67700C206558F83C78700CB
:104C2000E207D98FBE86832744FD9843832784FEFD
:104C3000B307F74086073E86B685EFA0E01E5DA06D
:104C40008327C4FD03C7570083C66700A206558F9C
:104C500083C67700C206558F83C78700E207D98FC6
:104C60003E868327C4FD03C7D70083C6E700A2069C
:104C7000558F83C6F700C206558F83C70701E20729
:104C8000D98F8A073307F600832784FE8A073E867A
:104C9000BA85032584FDEFA02019832784FE8A07A7
:104CA000032784FD3305F7008327C4FD03C757009E
:104CB00083C66700A206558F83C67700C206558F4C
:104CC00083C78700E207D98FBE86832744FD9843B8
:104CD000832784FEB307F7408A073E86B685EFA098
:104CE000A01401008327C4FD83C70700DD9B13F7D1
:104CF000F70F8327C4FD2380E700832704FDF1EF2E
:104D00008327C4FD03C70700AD476316F700894733
:104D10002326F4FED9A08327C4FD83C7070093E7A9
:104D2000270013F7F70F8327C4FD2380E7008327AD
:104D300044FD9C43BE850325C4FDEFF08F8D832782
:104D4000C4FD03C7170183C62701A206558F83C67A
:104D50003701C206558F83C74701E207D98F3E87C7
:104D6000832744FD9C433E978327C4FD9375F70F2B
:104D700083C61701818A3686AE86D18EA388D70076
:104D80009356870093F5F60F83C62701818A3686EE
:104D9000AE86D18E2389D7009356070193F5F60F7F
:104DA00083C63701818A3686AE86D18EA389D70025
:104DB0001356870103C74701018BBA863287558F87
:104DC000238AE7008327C4FD83C70700F59B13F7F9
:104DD000F70F8327C4FD2380E7008327C4FE3E85A9
:104DE000B250225445618280797106D622D40018CF
:104DF000232EA4FC232CB4FC232AC4FC2328D4FC9B
:104E00008327C4FDB337F00093F7F70F3E871306EF
:104E10002022D167938587F13A85EFE09FCC232646
:104E200004FE8327C4FD032744FD1376F70F03C751
:104E30005700018BBA863287558FA382E70003277C
:104E400044FD21831376F70F03C76700018BBA86F1
:104E50003287558F2383E700032744FD4183137670
:104E6000F70F03C77700018BBA863287558FA3836C
:104E7000E700032744FD1356870103C78700018B12
:104E8000BA863287558F2384E7008327C4FD2380A9
:104E900007008327C4FD032784FD1376F70F03C79C
:104EA0001700018BBA863287558FA380E70003274E
:104EB00084FD21831376F70F03C72700018BBA8681
:104EC0003287558F2381E700032784FD41831376C2
:104ED000F70F03C73700018BBA863287558FA3813E
:104EE000E700032784FD1356870103C74700018BA2
:104EF000BA863287558F2382E7008327C4FD03C714
:104F00009700018BA384E70003C7A700018B2385CB
:104F1000E70003C7B700018BA385E70003C7C700FD
:104F2000018B2386E7008327C4FD03C7D700018BCD
:104F3000A386E70003C7E700018B2387E70003C7C9
:104F4000F700018BA387E70003C70701018B2388C4
:104F5000E7008327C4FD032704FD1376F70F03C77B
:104F60001701018BBA863287558FA388E700032784
:104F700004FD21831376F70F03C72701018BBA863F
:104F80003287558F2389E700032704FD4183137679
:104F9000F70F03C73701018BBA863287558FA38974
:104FA000E700032704FD1356870103C74701018B60
:104FB000BA863287558F238AE7008327C4FD0327EB
:104FC00004FD1376F70F03C75701018BBA863287AA
:104FD000558FA38AE700032704FD21831376F70F7B
:104FE00003C76701018BBA863287558F238BE70091
:104FF000032704FD41831376F70F03C77701018B65
:10500000BA863287558FA38BE700032704FD13561A
:10501000870103C78701018BBA863287558F238C9E
:10502000E7008327C4FE3E85B2502254456182804A
:10503000397106DE22DC80002326A4FC2324B4FC84
:105040008327C4FCB337F00093F7F70F3E871306AE
:105050000008D167938507F73A85EFE09FA8A3077B
:1050600004FE232404FE8327C4FCE1CB832784FCB5
:1050700063D307028327C4FC138717002326E4FCAD
:105080001307D0022380E700832784FCB307F04096
:105090002324F4FCB9A8832784FCA1EF8327C4FC54
:1050A000130700032380E70051A8032784FCA947C6
:1050B000B367F7022324F4FE832784FE13D7F74156
:1050C000832784FEB98F998F0347F4FE9306170058
:1050D000A307D4FEBA8613F7F70F930704FFB6971A
:1050E0002384E7FE032784FCA947B347F702232460
:1050F000F4FC832784FCD5FB2DA88347F4FEFD1721
:10510000130704FFBA9783C787FE9387070393F6B5
:10511000F70F8327C4FC138717002326E4FC13979B
:10512000860161872380E7008347F4FEFD17A3070C
:10513000F4FE8347F4FEF1F311A001000100F250E8
:10514000625421618280397106DE22DC80002326D0
:10515000A4FC2324B4FC8327C4FCB337F00093F7EA
:10516000F70F3E871306C00CD167938507F73A8582
:10517000EFE03F97A30704FE8327C4FCD9CB832726
:1051800084FCB1E38327C4FC130700032380E700FA
:1051900051A0032784FCA947B376F7028347F4FEA6
:1051A00013871700A307E4FE139786016187930610
:1051B00004FFB6972386E7FE032784FCA947B3576D
:1051C000F7022324F4FC832784FCE1F73DA88347FE
:1051D000F4FEFD17130704FFBA978387C7FE93F702
:1051E000F70F9387070393F6F70F8327C4FC138702
:1051F00017002326E4FC1397860161872380E700CC
:105200008347F4FEFD17A307F4FE8347F4FEE1F3A2
:1052100011A001000100F25062542161828041110D
:1052200022C600089967938787087390078001005A
:10523000324441018280411122C60008996773906F
:1052400007800100324441018280011122CE00100A
:105250002326A4FE8327C4FEFD8B0547B316F70063
:1052600037E700E08327C4FE9583938707048A0706
:10527000BA9794C30100724405618280011122CE65
:1052800000102326A4FE8327C4FEFD8B0547B3161A
:10529000F70037E700E08327C4FE9583938707066E
:1052A0008A07BA9794C30100724405618280011194
:1052B00022CE00102326A4FEAE87A305F4FE37E716
:1052C00000E08327C4FEBA970347B4FE2380E7407B
:1052D0000100724405618280011106CE22CC0010CB
:1052E0002326A4FE0325C4FEEFF03FF60100F240A2
:1052F000624405618280011106CE22CC0010232673
:10530000A4FE0325C4FEEFF07FF70100F2406244E3
:1053100005618280011106CE22CC00102326A4FE56
:10532000AE87A305F4FE8347B4FEBE850325C4FE05
:10533000EFF0FFF70100F240624405618280011145
:1053400006CE22CC00102326A4FE8327C4FE99C7D4
:1053500083A7C1881387F7FF23A6E18883A7C188A5
:1053600099E3EFF0DFEB0100F240624405618280D7
:10537000411106C622C4000883A7C18899E3EFF053
:105380009FEB83A7C1881387170023A6E18883A713
:10539000C1883E85B240224441018280411106C647
:1053A00022C400080145EFF09FF90100B2402244F9
:1053B00041018280357106CF16CD1ACB1EC922C796
:1053C0002AC52EC332C1B6DEBADCBEDAC2D8C6D612
:1053D000F2D4F6D2FAD0FECE82E686E48AE28EE0FD
:1053E00012FE16FC1AFA1EF82AF62EF432F236F0E5
:1053F0003AEE3EEC42EA46E872E676E47AE27EE095
:10540000001193055052B747014013850780EF30D4
:105410000077AA8789CB93055052B747014013857F
:105420000780EF30F0050100FA40EA425A43CA43D0
:105430003A442A459A450A46F6566657D65746587C
:10544000B658265E965E065FF64F3660A660166119
:1054500086617272E2725273C2733275A2751276ED
:1054600082767267E2675268C268326EA26E126F0D
:10547000826F0D6173002030357106CF16CD1ACBC7
:105480001EC922C72AC52EC332C1B6DEBADCBEDAB7
:10549000C2D8C6D6F2D4F6D2FAD0FECE82E686E4E0
:1054A0008AE28EE012FE16FC1AFA1EF82AF62EF494
:1054B00032F236F03AEE3EEC42EA46E872E676E444
:1054C0007AE27EE0001193055052B7470040138501
:1054D0000740EF30C06AAA8789CB93055052B7477F
:1054E000004013850740EF30A0790100FA40EA42FE
:1054F0005A43CA433A442A459A450A46F6566657DD
:10550000D6574658B658265E965E065FF64F36600A
:10551000A660166186617272E2725273C27332754E
:10552000A275127682767267E2675268C268326E3E
:10553000A26E126F826F0D6173002030357106CF3D
:1055400016CD1ACB1EC922C72AC52EC332C1B6DE5C
:10555000BADCBEDAC2D8C6D6F2D4F6D2FAD0FECEC3
:1055600082E686E48AE28EE012FE16FC1AFA1EF843
:105570002AF62EF432F236F03AEE3EEC42EA46E8F3
:1055800072E676E47AE27EE0001193055052B75756
:10559000004013850780EF30805EAA8789CB930592
:1055A0005052B757004013850780EF30606D0100FF
:1055B000FA40EA425A43CA433A442A459A450A46BF
:1055C000F6566657D6574658B658265E965E065F1C
:1055D000F64F3660A660166186617272E27252738F
:1055E000C2733275A275127682767267E26752686C
:1055F000C268326EA26E126F826F0D61730020302E
:10560000357106CF16CD1ACB1EC922C72AC52EC3A7
:1056100032C1B6DEBADCBEDAC2D8C6D6F2D4F6D211
:10562000FAD0FECE82E686E48AE28EE012FE16FC16
:105630001AFA1EF82AF62EF432F236F03AEE3EEC62
:1056400042EA46E872E676E47AE27EE000119305EB
:105650005052B7570040138507C0EF304052AA8719
:1056600089CB93055052B7570040138507C0EF30E0
:1056700020610100FA40EA425A43CA433A442A45AB
:105680009A450A46F6566657D6574658B658265E85
:10569000965E065FF64F3660A6601661866172728E
:1056A000E2725273C2733275A27512768276726795
:1056B000E2675268C268326EA26E126F826F0D612D
:1056C00073002030357106CF16CD1ACB1EC922C704
:1056D0002AC52EC332C1B6DEBADCBEDAC2D8C6D6FF
:1056E000F2D4F6D2FAD0FECE82E686E48AE28EE0EA
:1056F00012FE16FC1AFA1EF82AF62EF432F236F0D2
:105700003AEE3EEC42EA46E872E676E47AE27EE081
:1057100000119305505237550040EF304046AA879C
:1057200091CB83A741818297930550523755004012
:10573000EF3000550100FA40EA425A43CA433A4466
:105740002A459A450A46F6566657D6574658B658D9
:10575000265E965E065FF64F3660A660166186612D
:105760007272E2725273C2733275A27512768276C9
:105770007267E2675268C268326EA26E126F826F01
:105780000D6173002030357106CF16CD1ACB1EC9BE
:1057900022C72AC52EC332C1B6DEBADCBEDAC2D8F1
:1057A000C6D6F2D4F6D2FAD0FECE82E686E48AE2FB
:1057B0008EE012FE16FC1AFA1EF82AF62EF432F2C9
:1057C00036F03AEE3EEC42EA46E872E676E47AE2F9
:1057D0007EE0001193055052B727004013850780E3
:1057E000EF30E039AA8789CB93055052B7270040A4
:1057F00013850780EF30C0480100FA40EA425A435F
:10580000CA433A442A459A450A46F6566657D65739
:105810004658B658265E965E065FF64F3660A6601E
:10582000166186617272E2725273C2733275A2752A
:10583000127682767267E2675268C268326EA26E32
:10584000126F826F0D6173002030357106CF16CD57
:105850001ACB1EC922C72AC52EC332C1B6DEBADC96
:10586000BEDAC2D8C6D6F2D4F6D2FAD0FECE82E6DE
:1058700086E48AE28EE012FE16FC1AFA1EF82AF678
:105880002EF432F236F03AEE3EEC42EA46E872E6A8
:1058900076E47AE27EE0001193055052B72700408B
:1058A000138507C0EF30A02DAA8781CF83A7C181C0
:1058B000829793055052B7270040138507C0EF30F9
:1058C000203C0100FA40EA425A43CA433A442A457E
:1058D0009A450A46F6566657D6574658B658265E33
:1058E000965E065FF64F3660A6601661866172723C
:1058F000E2725273C2733275A27512768276726743
:10590000E2675268C268326EA26E126F826F0D61DA
:1059100073002030357106CF16CD1ACB1EC922C7B1
:105920002AC52EC332C1B6DEBADCBEDAC2D8C6D6AC
:10593000F2D4F6D2FAD0FECE82E686E48AE28EE097
:1059400012FE16FC1AFA1EF82AF62EF432F236F07F
:105950003AEE3EEC42EA46E872E676E47AE27EE02F
:1059600000119305505237250040EF304021AA879F
:1059700089CBEFC03F8A9305505237250040EF3066
:1059800020300100FA40EA425A43CA433A442A45C9
:105990009A450A46F6566657D6574658B658265E72
:1059A000965E065FF64F3660A6601661866172727B
:1059B000E2725273C2733275A27512768276726782
:1059C000E2675268C268326EA26E126F826F0D611A
:1059D00073002030357106CF16CD1ACB1EC922C7F1
:1059E0002AC52EC332C1B6DEBADCBEDAC2D8C6D6EC
:1059F000F2D4F6D2FAD0FECE82E686E48AE28EE0D7
:105A000012FE16FC1AFA1EF82AF62EF432F236F0BE
:105A10003AEE3EEC42EA46E872E676E47AE27EE06E
:105A20000011B707055083C7070193F7F70F918B54
:105A30008DC383A781818297B707055083C707016C
:105A400013F7F70FB70705506D9B1377F70F2388F0
:105A5000E7000100FA40EA425A43CA433A442A4561
:105A60009A450A46F6566657D6574658B658265EA1
:105A7000965E065FF64F3660A660166186617272AA
:105A8000E2725273C2733275A275127682767267B1
:105A9000E2675268C268326EA26E126F826F0D6149
:105AA00073002030357106CF16CD1ACB1EC922C720
:105AB0002AC52EC332C1B6DEBADCBEDAC2D8C6D61B
:105AC000F2D4F6D2FAD0FECE82E686E48AE28EE006
:105AD00012FE16FC1AFA1EF82AF62EF432F236F0EE
